:020000040021D9
:1020000078700420DD212100E52121002921210013
:1020100081EE210075362100850C220000000000B1
:102020000000000000000000000000003521210039
:10203000EF21210000000000C5202100F521210032
:10204000DFF814D001F0C2F800F062FC004800474D
:1020500089A02300AFF3008078700420EFF309809B
:1020600070476846704700002C4B19680868B0E854
:10207000F04F80F30988BFF36F8F4FF0000080F3BB
:10208000118870470000000008480068006880F36D
:1020900008884FF0000080F3148862B661B6BFF381
:1020A0004F8FBFF36F8F00DF00BF00BF08ED00E070
:1020B000DFF80C00016841F470010160704700BF57
:1020C00088ED00E0EFF30980BFF36F8F134B1A68C0
:1020D0001EF0100F08BF20ED108A20E9F04F1060AD
:1020E00009B44FF0300080F31188BFF34F8FBFF376
:1020F0006F8F2DF017F84FF0000080F3118809BCA6
:1021000019680868B0E8F04F1EF0100F08BFB0EC77
:10211000108A80F30988BFF36F8F7047C8B500201D
:10212000EFF3058070470000704669461DF070F8B7
:10213000FFF7FEFF004800470160100010B50A4994
:10214000086911F623FD10BD10B50DF6E7FB10BDB3
:1021500010B50549886811F619FD10BD10B5024982
:10216000086811F613FD10BD780A240070B500242C
:102170002CE0184850F8240000B926E0154850F823
:10218000240090F86C0001281ED100BF13F04AF91A
:102190000546012015F066FA0E4951F82410081D75
:1021A0001EF68EFF284615F05DFA00BF0A4901EBC6
:1021B000C40191F9010015F6EDF8074901EBC401DE
:1021C00091F9010015F604F900BF641C062CD0D368
:1021D00070BD0000C8D20020000B240006488047D4
:1021E00006480047FEE7FEE7FEE7FEE7FEE7FEE7FC
:1021F000FEE7FEE7FEE7000095062200D5A02300DB
:1022000058585247010000002655000000202100C8
:10221000002021007FED944701010000626C655FA2
:102220006170705F74656D70000000000000000058
:10223000000000000000000000000000000000009E
:102240007CB504464FF480615E4800F016FB202107
:1022500084F8401084F88F102078012809D104F107
:1022600050000090621C58A15648636C12F0A2FF07
:102270001AE0207802280AD1D4E91201CDE9000140
:10228000621C57A14F48636C12F094FF0CE0207859
:10229000032809D1D4E91201CDE90001621C5BA138
:1022A0004848636C12F086FF464800F00FFB85B289
:1022B000294644481EF08EF97CBD2DE9F0410546C3
:1022C0000E4614461F464FF00008204600F0FEFA66
:1022D000402801D9402002E0204600F0F7FA80466D
:1022E0009021544800F0C9FA424621465148401C0A
:1022F00000F09BFA02204F49087008464764856445
:10230000C664FFF79DFFBDE8F08105460E46144602
:102310001F4672B64FF00008204600F0D7FA40285A
:1023200001D9402002E0204600F0D0FA80469021FA
:10233000404800F0A2FA424621463E48401C00F0C8
:1023400074FA03203B490870084647648564C664F4
:10235000FFF776FF00BFFEE704460D46164672B64D
:102360000027B846284600F0B1FA402801D940209D
:1023700002E0284600F0AAFA8046204600F0A6FABD
:10238000402801D9402002E0204600F09FFA07468D
:102390009021284800F071FA424629462548401C01
:1023A00000F043FA3A4621462248503000F03DFA08
:1023B00001202049087008464664FFF741FF00BF2E
:1023C000FEE700007CC700202825733A20256429F9
:1023D000205B4552524F525D2025730D0A000000CC
:1023E0002825733A20256429205B5741524E494ED7
:1023F000475D20506172616D303A25642C506172E6
:10240000616D313A25640D0A000000002825733AF9
:1024100020256429205B504152414D5D205061725E
:10242000616D303A25642C506172616D313A2564DA
:102430000D0A00007CCB002010B500241DE004EB49
:10244000C40000EB4000434911F82000012813D1DB
:1024500004EBC40000EB400001EB800040683E4903
:10246000884209D104EBC40101EB4101394A02EB76
:102470008101081D0EF620FD641C0C2CDFD310BD5D
:1024800010B500241DE004EBC40000EB400031490E
:1024900011F82000012813D104EBC40000EB400028
:1024A00001EB800040682D49884209D104EBC4014A
:1024B00001EB4101274A02EB8101081D0EF6FCFCED
:1024C000641C0C2CDFD310BD10B500243EE004EBDF
:1024D000C40000EB40001F4911F82000012834D14E
:1024E00004EBC40101EB41011A4A02EB8101081D12
:1024F0000EF642FE04EBC40000EB4000154901EB70
:1025000080004068144988420AD1032012F0F5FE89
:10251000D8B9032014F63EFF032014F659FF14E047
:1025200004EBC40000EB40000A4901EB8000406866
:102530000A49884209D1232012F0DFFE28B923205E
:1025400014F628FF232014F643FF641C0C2CBED382
:1025500010BD00000CCC00200090014000A0014004
:1025600010B5002412E0204850F8240000B90CE017
:102570001E4850F8240000B907E01C4A52F8240015
:10258000194A52F82410884700BF641C202CEAD353
:1025900000240DE0164850F8240000B907E0154A61
:1025A00052F82400124A52F82410884700BF641CD5
:1025B000042CEFD310BD70B5032612E000250DE00A
:1025C0000D4850F8254044B1606830B10A484830A1
:1025D000405DB04201D1606880476D1C122DEFD381
:1025E000761E002EEAD170BD841100200412002056
:1025F00094120020A41200206CD2002070B5002498
:1026000026E01E4850F8240000B920E01B4850F88E
:10261000240090F8AE00012818D100BF00BFEFF3EE
:1026200010800546012015F020F8144951F82400C7
:102630001AF602FE284615F018F800BF1049085790
:1026400014F6A8FE0E49085714F6C2FE00BF641C1B
:10265000032CD6D370BD10B50849086819F620FEC2
:1026600010BD10B50549486819F61AFE10BD10B521
:102670000249886819F614FE10BD0000E0D200205F
:10268000280E240070B500242DE02D4850F82400B9
:1026900000B927E02A4850F8240090F88C0001285F
:1026A0001FD100BF00BFEFF310800546012014F0DA
:1026B000E2FF234951F82410081D23F021FE28468B
:1026C00014F0D9FF00BF1F4901EBC40191F90100CB
:1026D00014F660FE1B4901EBC40191F9010014F6E8
:1026E00077FE00BF641C062CCFD370BD10B5144913
:1026F0004969081D23F012FC10BD10B51049096985
:10270000081D23F00BFC10BD10B50D49C968081D4C
:1027100023F004FC10BD10B509498968081D23F099
:10272000FDFB10BD10B506494968081D23F0F6FBF6
:1027300010BD10B502490968081D23F0EFFB10BD5C
:10274000ECD20020600E24002DE9F05F0546002049
:1027500092469B4688460646814640241BE0284612
:1027600041464746224600F07DFB53465A46C01A72
:10277000914110D311461846224600F047F82D1A11
:1027800067EB01084F4622460120002100F03EF889
:1027900017EB00094E41201EA4F10104DFDC48467E
:1027A00031462A464346BDE8F09F2DE9F04100241A
:1027B000061B254671F1000605DA01240027D0EB3F
:1027C000070067EB0101161E73F1000605DA00270A
:1027D000D2EB0702012567EB0303FFF7B5FF86463F
:1027E0000E4617469C46AC4204D00025D0EB050EA1
:1027F00065EB010624B10020D2EB000760EB030C6F
:10280000704631463A466346BDE8F081202A04DB33
:10281000203A00FA02F1002070479140C2F12003F3
:1028200020FA03F319439040704710B5441A034649
:10283000944209D28418114403E011F8013D04F8D0
:10284000013D521EF9D210BD40EA0104A40703D095
:1028500009E010C9121F10C3042AFAD203E011F8CC
:10286000014B03F8014B521EF9D210BDD2B201E068
:1028700000F8012B491EFBD270470022F6E710B585
:1028800013460A4604461946FFF7F0FF204610BDDE
:10289000421E12F8013F002BFBD111F8013B02F858
:1028A000013B002BF9D1704730B505462A460B464F
:1028B00012F8010B13F8014B08B1A042F8D01CB17B
:1028C000002802D06D1CF1E7284630BD421C10F8EC
:1028D000011B0029FBD1801A704710B5002200E0CF
:1028E000521C835C8C5CA34201D1002BF8D1D8B27E
:1028F000E1B2401A10BD30B504460020034600E0A6
:102900005B1C934203D2E05CCD5C401BF8D030BD31
:1029100070B5054C054D03E0206820448047241D18
:10292000AC42F9D170BD0000B8092500BC092500F2
:102930002DE9FE4F804681EA0300C00F0C4600904F
:1029400021F0004123F00045B8EB0200A94105D277
:102950004046214690461C460B46024623F0004066
:10296000104347D0270DC7F30A00C3F30A51029062
:10297000401A019040286BDAC3F3130040F4801B27
:102980000098924620B10023D2EB030A63EB0B0BB5
:1029900001985946C0F140025046FFF737FF0646FE
:1029A0000D4650465946019A00F06CFA10EB0800AB
:1029B0006141002487EA115284EAE7731A4340D048
:1029C000009A62B3019A012A4FEA075215DC001BF4
:1029D00061EB02014FF0004202EA0752CDE90042EA
:1029E000001C41F5801132462B4600F0C1FA03B0BD
:1029F000BDE8F08F40462146F9E7001B61EB02017C
:102A0000001C41F5801300185B412018A2F5001747
:102A100047EB030140EAD570B6196D4111E06D082E
:102A20004FEA360645EAC0754FEA0752001B61EBD4
:102A30000201001C41F5801149084FEA30000019DD
:102A4000514132462B4603B0BDE8F04F00F081BA49
:102A50000098012240000023D0EB020263EBE073F8
:102A6000009821464FEAE074B8EB000061EB0401E6
:102A7000E9E783F000435BE781F0004158E72DE987
:102A8000FE4F81EA030404F0004421F00041009469
:102A90004FF0000B23F0004350EA01045ED052EAED
:102AA00003045BD0C3F30A54C1F30A552C44A4F2C7
:102AB000F3340194A0FB0254C1F3130141F48011DB
:102AC000C3F3130343F4801301FB024400FB034EE2
:102AD000840A970A44EA815447EA8357A4FB0768AB
:102AE00002958D0A05FB07854FEA932C04FB0C54D5
:102AF0002705029D4FEA065847EA1637B5EB080549
:102B00006EEB070C870E920E47EA811742EA83129A
:102B1000A7FB0201B6EB0B0164EB00042B0D43EAAB
:102B20000C335E1844EB1C50DA465146E7FB0201B9
:102B3000C5F313044FEA0B3343EA14534FEA04324C
:102B4000019C43EA0603A4F10C040294009CCDE925
:102B500000B400F00DFA03B0BDE8F08F002001468C
:102B6000F9E72DE9F04D81EA030404F0004B21F070
:102B7000004514464FF0000A23F0004150EA0502D8
:102B800020D054EA01021DD0C5F30A570246C5F30E
:102B90001303C1F31300C1F30A5640F4801543F444
:102BA0008013A7EB0608101BD64608F2FD3873EB1E
:102BB000050002D308F1010801E092185B41B8F169
:102BC000000F03DA00200146BDE8F08D00204FF42D
:102BD0008011064684460EE0171B73EB050705D3EC
:102BE000121B63EB050306434CEA010C49084FEA4C
:102BF000300092185B4150EA0107EDD152EA030020
:102C000012D082EA040083EA0501084305D0101BB4
:102C1000AB4106D20122002306E000224FF0004320
:102C200002E06FF0010253101AEB06004CEB085162
:102C300010EB0A0041EB0B01BDE8F04D00F089B943
:102C4000F0B4CA17CB0F50405140C61841F10005EF
:102C50004FEAC372314628004FF0960303D0B623E3
:102C6000F0BC00F02AB930460021F9E730B4044640
:102C700096230800214604D0B62330BC002200F081
:102C80001CB920460021F8E70EB5C10F80EAE070BC
:102C90000844CA07002140F233438DE80E000A467B
:102CA0000B4600F065F903B000BD0EB540F23341AC
:102CB00002910021CDE900110A460B4600F058F9B7
:102CC00003B000BD0EB540F2334202920022CDE9BE
:102CD0000022134600F04CF903B000BD20F0004084
:102CE000C20DC0F3160040F400007F2A02DA002073
:102CF000014670470021962A03DCC2F19602D040BB
:102D00007047963AFFF782BD70B5C1F30A5201F0E1
:102D100000450024C1F3130140F2FF3341F4801158
:102D20009A4201DA002070BD40F233439A42A2F287
:102D3000334203DC524200F095F800E090402C430F
:102D4000F1D0404270BDC1F30A5210B5C1F3130176
:102D500040F2FF3341F480119A4201DA002010BDA5
:102D600040F233439A42A2F2334203DC524200F073
:102D700079F810BD904010BD00F0004230F00040E6
:102D80000AD0C10D01F56071C0F3160042EA01518D
:102D9000C2084007114370470020014670470000F9
:102DA00030B5041E71F1000404DB4FF000444042D2
:102DB00064EB0101141E73F1000405DB1C464FF0A7
:102DC0000043524263EB04038B4208BF824230BD92
:102DD00030B5041E71F1000404DB4FF000444042A2
:102DE00064EB0101141E73F1000405DB1C464FF077
:102DF0000043524263EB0403994208BF904230BD46
:102E000001F0004330B421F0004150EA010206D045
:102E10000A0DA2F56072C1F31301002A02DC30BC76
:102E200000207047440F44EAC104C100E01830BCE0
:102E300000EBC25000F038B830B50B460146002018
:102E40002022012409E021FA02F59D4205D303FA6C
:102E500002F5491B04FA02F52844151EA2F10102ED
:102E6000F1DC30BD202A04DB203A21FA02F00021F7
:102E7000704721FA02F3D040C2F12002914008438A
:102E800019467047202A06DBCB17203A41FA02F098
:102E900043EAE07306E041FA02F3D040C2F12002B7
:102EA00091400843194670470029A8BF7047401C4D
:102EB000490008BF20F00100704710B4B0FA80FC50
:102EC00000FA0CF050EA010404BF10BC704749B18D
:102ED000CCF1200421FA04F411FA0CF118BF0121FD
:102EE00021430843A3EB0C01CB1D4FEA00614FEADD
:102EF000102042BF002010BC704700EBC3501044AC
:102F00000029A4BF10BC7047401C490008BF20F036
:102F1000010010BC704710B541000CD0C0F3C75180
:102F2000962908DC7E2909DC06DB410204D000F08A
:102F3000004040F07E5010BD002010BDC1F196044D
:102F4000C4F1200100FA01F1E040FFF7ADFFA0401D
:102F500010BD10B5141E73F1000408DA401C41F1D5
:102F6000000192185B411A4301D120F0010010BD0D
:102F70002DE9F04D92469B4611B1B1FA81F202E083
:102F8000B0FA80F220329046FFF740FC04460F462C
:102F900040EA0A0041EA0B0153465A46084313D05F
:102FA000114653EA010019D0C8F140025046FFF71C
:102FB00059FF05460E46504659464246FFF726FC45
:102FC000084305D0012004E020463946BDE8F08DD5
:102FD0000020054346EAE0762C4337430A98630510
:102FE000E40AA0EB08000022FD0A44EA47540A3034
:102FF00002D500200146E9E7010510196941DDE924
:10300000084500196941BDE8F04DA2E770B521F00F
:10301000004303430CD0C1F30A550024D5EB04054B
:1030200064EB0403D617AD1AB34102DB002001465E
:1030300070BD201841EB025170BD2DE9F04D002309
:103040001A461B1A8A4103DB00200146BDE8F08DB9
:10305000C1F30A52C1F3130141F480154FF0000B84
:10306000D10702D100186D41521E0027044640F2DC
:10307000FF11384601EB620A3E46804602460020B8
:103080004FF48011FFF7EEFEC2197141BB1846EBF9
:103090000100B4EB030C75EB000C04D3E41A65EBF0
:1030A000000517460E46241908F101006D418046BF
:1030B0003428E3DDF91946EB0600091BA84103D2C9
:1030C0004FF0FF32134601E0002213461BEB0700CE
:1030D00046EB0A51BDE8F04DFFF73BBF2DE9F0414B
:1030E000054621F000400C46284309D0C4F30A509D
:1030F00040F23341884205DD28462146BDE8F08193
:103100002846FBE740F2FE31884210DC0CDB4FEA38
:10311000043040EA155050EA053105D0104804F05B
:10312000004101430020E9E700200146E6E7A0F264
:1031300033404642C6F1400228462146FFF766FB6F
:1031400007468846284621463246FFF78BFE43460F
:103150003A46FFF7FEFE3246BDE8F041FFF756BBA8
:103160000000F03FC1F30A52C1F3130140F2FF33F4
:1031700041F480119A4202DA00200146704740F281
:1031800033439A42A2F2334202DC5242FFF76ABE54
:10319000FFF73CBB002801DBC0F10040002901DB48
:1031A000C1F10041814202D24FF0004004E04FF0F3
:1031B000005001D14FF0C0404FEA2062EFF3008190
:1031C00062F31F6181F3008870470000064C074DD1
:1031D00006E0E06840F0010394E8070098471034E7
:1031E000AC42F6D3FEF730FF78092500B809250078
:1031F00070B58C1810F8015B15F0070301D110F8B9
:10320000013B2A1106D110F8012B03E010F8016BE5
:1032100001F8016B5B1EF9D12B0705D40023521E68
:103220000DD401F8013BFAE710F8013BCB1A921CD0
:1032300003E013F8015B01F8015B521EF9D5A142CE
:10324000D8D3002070BDC1688068B1FBF0F200FBEC
:10325000121008B100207047012070472DE9F04F8F
:103260009A469346401F099B00EBC00202EB0019EF
:103270008F880E8A00200D68CC6818600A89888AB9
:1032800030E055F822C0D3F80080ACEB09014BF8D0
:103290002810884606E054F8201055F822C06145F1
:1032A00002DA401CB042F6DBB04214DA791E8A42E0
:1032B00007DA05EB820C54F82010DCF804C06145F5
:1032C00009DA54F820C0D3F80080ACEB090C401C9C
:1032D0004AF828C002E019684AF821801968491C98
:1032E000521C1960BA42CCDBBDE8F08F05200FF00C
:1032F00064BE06200FF061BE05211CF073BD0621DF
:103300001CF070BD2DE9F0411D4616460F46804663
:10331000002407E007EB840090ED000AA84728F896
:103320001400641CB442F5DBBDE8F0811FB5104900
:103330001EC98DE81E00C0F34103C0F356015DF8BD
:103340002330002221EA03048B43E11803E04B1EE3
:103350001940521CD2B20029F9D1014662F3000192
:10336000814202D0012004B010BD0020FBE7000024
:1033700050DF240010B5044600F006F8A04201D04A
:10338000012010BD002010BD1FB50D491EC98DE8DC
:103390001E00C0F34103C0F356015DF82330002244
:1033A00021EA03048B43E11803E04B1E1940521C31
:1033B000D2B20029F9D104B062F3000010BD0000C0
:1033C00080DF2400D0F888120022002902DD491E87
:1033D000C0F888121046704710B52DED028BB0EE84
:1033E000608AF0EE408A71EE480A9FED090A12F0F9
:1033F0007BFD9FED081AC1EE000A38EEC80ABDEC4D
:10340000028BBDE8104020EE200A2BF0A0BD00008A
:1034100017B7D13800007F4310B52DED028BB0EE09
:10342000608AF0EE408A71EE480A9FED090A12F0B8
:103430005BFD9FED081AC1EE000A38EEC80ABDEC2C
:10344000028BBDE8104020EE200A2BF091BD000059
:1034500017B7D13800007F432DE9F0472DED028BDF
:10346000D0E90271D0E9008997ED001A8A4670EE22
:10347000410AF5EEC00AF1EE10FA09D110EE101A69
:103480002B4A914216DCB5EEC00AF1EE10FA11D0CB
:10349000FDEEE01A11EE901A002900DA494201EE21
:1034A000901A90ED052AF8EEE11AF4EEC21AF1EE48
:1034B00010FA09DB31EE201A87ED001A97ED011A98
:1034C00071EE200AC7ED010AB0EE408A002404EB39
:1034D00044000AEBC40607EBC40509EB800108EBC6
:1034E0008000B0EE480A33462A462BF072FBD5ED39
:1034F000000A641CC5ED010A85ED008AD6ED000ABC
:10350000B0EE408A86EC020A022CE0DB10EE100AD4
:10351000FFF732FC41EC100B13F0FAFD51EC100BED
:10352000FFF76EFCBDEC028B00EE100ABDE8F087E1
:1035300000007A462DE9F04F0646106891B08B46A0
:1035400007691C469146282102A8FFF796F900203A
:103550000E900F900C900D90DBF804000F90D9F8AE
:1035600004004FF0010ACDE900A70D9002AD0DF166
:103570001C0863782278514628461CF0AAFBDBF829
:1035800000000C950E9073690CAA0EA9304698475E
:1035900007F57870CDE900A0E378A27801214046D4
:1035A0001CF097FB0D980E95CDF830800F90F36AC4
:1035B0000CAA0EA906F118009847CDE900A7637977
:1035C0002279012128461CF084FB0D98CDF8388023
:1035D0000C950F90736C0CAA0EA906F13000984759
:1035E00014222946D9F80000FFF71FF911B0BDE8F1
:1035F000F08F1AF01FBF014610B500200839B1F551
:10360000806F03D9012010BD401C00E0012400F1AF
:103610000A0304FA03F28A42F6D310BD70B50026FD
:103620000124DFED130A491E1BE000EB840595ED34
:10363000000A15ED011AB4EEC10AF1EE10FA0EDD22
:1036400095ED011AB4EEC10AF1EE10FA07DDB4EE01
:10365000E00AF1EE10FA02DD2646F0EE400A641CA4
:10366000E4B28C42E1D31E60C2ED000A70BD0000DE
:103670000000000000BFFEE7D0ED020A90ED011A45
:1036800070EE600A70EE810A90ED001A60EE810A19
:10369000C0ED010A80ED020AC1ED000A704710B5C5
:1036A0001BF03EFD10BD000070B5032017490968EE
:1036B00041F38001491C164D00290CD113490C31EE
:1036C0000968C1F3000131B110498C39096801F072
:1036D0000701884303D02869401C286170BD0D4C48
:1036E000206820F001002060206840F00400206085
:1036F00009494FF4003008601BF08CFFE868401C5B
:10370000E860206840F00100206070BDD4A4004053
:1037100040BD002088E2004084E200E02DE9FF5F28
:103720009A462DED028BD0E901C2048A0368A7B244
:10373000D31ADDE912B1DDE91059012404EBA3032A
:103740009BB29FED6B8B04EB410E4C1C106801F19A
:103750000208AE451DD88B42A2EB810501D205EBD4
:103760008705A3426E68A2EB810401D204EB8704B3
:1037700043452568A2EB810401D204EB87049E45F2
:1037800054F8044CA2EBC10101D901EB87010F6889
:1037900041E0454518D38B42A2EB810501D205EBF0
:1037A0008705A3426E68A2EB810401D204EB870473
:1037B00043452568A2EB810101D201EB8701DCF8CA
:1037C000007051F8044C26E0A54211D38B42A2EBC5
:1037D000810501D205EB8705A3426E68A2EB81014A
:1037E00001D201EB8701DCF800400D68274612E0AA
:1037F0008D420BD38B42A2EB810101D201EB8701F9
:10380000DCF800404E6825462F4604E0DCF8005006
:103810002C4626463746FFF7AFFA9AED000B53ECDD
:10382000102BFFF72CF953EC182BFFF781F841EC24
:10383000180B3046FFF7A0FA53EC182BFFF778F877
:1038400041EC180B2846FFF797FA9AED040B53EC5E
:10385000102BFFF714F953EC182BFFF769F841EC24
:10386000180B2046FFF788FA53EC182BFFF760F887
:1038700041EC180B3846FFF77FFA9AED081B53EC22
:10388000112BFFF7FCF853EC182BFFF751F841EC24
:10389000180BABF101004946814500DD00E0084608
:1038A00085B2012419E00398A9EB040100EBC100E3
:1038B00090ED001B049853EC112B00EBC40090ED2D
:1038C000000B51EC100BFFF7DAF853EC182BFFF755
:1038D000D3F841EC180B641CA4B2AC42E3D9B0EEAF
:1038E000480AF0EE680ABDEC028BBDE8FF9F0000BD
:1038F000000000000000000010B50020064908701C
:1039000006490870064908700649087032210648C1
:10391000FEF7B3FF10BD00002DB600202EB600202C
:103920002FB6002030B60020E60001202DE9F04F30
:103930004668D1F8049007884C88B0F80280DFED23
:10394000161AD2F804B08A464FF0000CDAF80400D8
:103950000BEB8C052346B0EE610A3146424608E087
:10396000F1EC010A90ED001A00EB8400521E00EE0B
:10397000810A002AF4D15B1EA4EB0301A5EC010A25
:1039800009EB8100E7D1A44406EB88067F1EDDD158
:103990000020BDE8F08F00000000000030B50D46AB
:1039A00004460DF0DBF8DFED0B0A002208E004EB23
:1039B0008200521C90ED001A31EE401A41EE010ACD
:1039C000AA42F4D36D1E00EE105AB8EE401A80EEF3
:1039D000810A30BD0000000070B50E460546002487
:1039E00007E004EB041100EB8100001D1CF0ECFF6C
:1039F000641C2868A0423068F3D8BDE8704006F027
:103A000029B800001FB50D491EC98DE81E00C0F37E
:103A10004103C0F356015DF82330002221EA03047C
:103A20008B43E11803E04B1E1940521CD2B200290F
:103A3000F9D104B062F3000010BD000070DF240073
:103A400010B50446FFF7DEFFA04201D0012010BDF3
:103A5000002010BD10B504460068FFF7D3FF2060BA
:103A600010BD000010B518A100200CF0E7FB21A14B
:103A700000200CF0E3FB14A100200CF0DFFB244835
:103A800017F0C0F9234817F0C3F923A100200CF068
:103A9000D5FB17F06BF928A100200CF0CFFB4FF4F9
:103AA00096722CA100200CF0C9FB4FF49670FBF528
:103AB000A7FD32A100200CF0C1FB17F0AFF937A130
:103AC00000200CF0BBFB10BD3D3D3D3D3D3D3D3D6F
:103AD0003D3D3D3D3D3D3D3D3D3D3D3D3D3D3D3D16
:103AE0003D3D3D3D3D3D3D3D3D3D3D3D3D3D3D3D06
:103AF0000D0A000047483332323020454347204208
:103B00006172656D6574616C2044656D6F0D0A00AE
:103B10001DFB2200A9FB2200496E697469616C6972
:103B20007A696E6720454347206D6F64756C652E1A
:103B30002E2E0D0A00000000454347206D6F64756E
:103B40006C6520696E697469616C697A65640D0AD7
:103B50000000000057616974696E67202564206D5C
:103B600073206265666F7265207374617274696E2A
:103B700067204543472E2E2E0D0A000053746172B4
:103B800074696E6720454347206D65617375726582
:103B90006D656E742E2E2E0D0A00000045434720E1
:103BA0006D6561737572656D656E74207374617295
:103BB0007465640D0A0000002DE9F0412DED048BC1
:103BC00008689FED238ADFED238A0769106806697C
:103BD000856800200BE007EB800191ED000AB4EE50
:103BE000C80AF1EE10FA01DDB0EE408A401CA8428E
:103BF000F1DB0024DFF860809FED189A14E007EBFA
:103C0000840090ED000A30EE480A10EE100A40459C
:103C100001DBB0EE490A11F0AFFF06EB840070EE55
:103C2000288A80ED000A641CAC42E8DB002008E032
:103C300006EB8001401C91ED000AC0EE280AC1EDA0
:103C4000000AA842F4DBBDEC048B0020BDE8F08143
:103C5000FFFF7FFF000000000000B0420000B04204
:103C60002DE9F04306462DED028B8DB01068144609
:103C7000401C106096ED140A4FF00009B8EEC00A1F
:103C80008DED080A96ED150AB8EEC00A8DED090A09
:103C900096ED160AB8EEC00A8DED0A0A9FED5C0A91
:103CA000F0EE081A8DED070ADDED080A20EEA01AE5
:103CB000DDED090A00EEA01ADDED0A0A00EEA01AF9
:103CC000C1EE210AF5EEC00AF1EE10FA03DBB1EE07
:103CD000E01A8DED071A8DED020A8DED030A8DEDC8
:103CE000040A8DED050A8DED060A9FED4A8A00252E
:103CF0008DED0B0A4FF09048012756F8250000EE95
:103D0000100AB8EEC00A10EE100A8DED0B0A4045FD
:103D100001DD9FED418A009704EB0510BDEEC80A56
:103D2000012302AA8DED010A0BA9001D1DF0C4F9A3
:103D30009DED020AFFF7DDFA01B204EBC500843005
:103D40001DF023F86D1C042DD7DBBDEEC88A0025BD
:103D500000958DED018A012303AA08A904F144000E
:103D60001DF0AAF900958DED018A012304AA09A985
:103D700004F154001DF0A0F900958DED018A012396
:103D800005AA0AA904F164001DF096F900958DEDCD
:103D9000018A012306AA07A904F174001DF08CF919
:103DA00020680321B0FBF1F201FB1200012828D1A9
:103DB0009DED030AFFF79DFA0FFA80F89DED040AC6
:103DC000FFF797FA07B29DED050AFFF792FA06B2E0
:103DD0009DED060AFFF78DFA05B2414604F1A400F5
:103DE0001CF0D3FF394604F1AC001CF0CEFF314685
:103DF00004F1B4001CF0C9FF294604F1BC001CF01A
:103E0000C4FF0DB04846BDEC028BBDE8F083000056
:103E10000000000000000045000080482DE9F04F40
:103E2000144605462DED088B02EBD470461083B086
:103E300070100190A14208DAA4EB01004FEA800261
:103E400005EB81001146FEF718FDB4F5807F0BD11C
:103E5000DFF80891B1B202234A4628460FF01BF959
:103E6000072128460EF0ECF995EC020A06EBD67015
:103E70000024009030EE600AB0EEC0BA4CE0301B77
:103E800005EBC40805EBC00798ED00AA97ED009A72
:103E9000D8ED019AD7ED018A3AEE091A09EB840BA5
:103EA00039EEA88ADBED001A0198F0EE41AA79EE0E
:103EB000E80A39EE4A0A08EE211A011B09EB810AC9
:103EC00040EE210A9AED002A00EE021A48EE420A5C
:103ED00021EE010A00EEA00A13F014FA88ED000AA0
:103EE000DBED001AB0EE6A1A78EEE90A3AEE490AFA
:103EF00008EE611A9AED002A40EE610A00EE021AFD
:103F000048EE420A21EE010A00EEA00A13F0FAF987
:103F100087ED000A0098641CB4EB600FAFDD012050
:103F2000B6EE000A0AE005EBC001D1ED000A05EB90
:103F30008001401C60EE800AC1ED000AB042F2DB55
:103F400005EB86009FED060A85ED000A80ED00BABC
:103F500003B0BDEC088BBDE8F08F0000C4FE240068
:103F6000000000002DE9F0410D46064600240BE05C
:103F700004EB440005EBC00007461CF0FDFC07F114
:103F80000C001CF0F9FC641C3068A042F0D8BDE8BD
:103F9000F08103468B4203D3934201D81846704701
:103FA000934203D38B4201D81846F8E7994203D3D2
:103FB000914201D80846F2E7914203D3994201D8D1
:103FC0000846ECE71046EAE710B502F0C3FD01F041
:103FD00033FA00F01FF802F08BFF00F031FF10BD44
:103FE00070B504460D46207890B16068012806D16E
:103FF000202000F0FFFA102002F0DAFF08E06068ED
:10400000022805D1102000F0F5FA202002F0D0FFA0
:1040100070BD000010B504220021024802F0F3F840
:1040200010BD0000B1BA0020F8B507460D460024C7
:1040300011E0E00047FA00F0C0B2009004EB450048
:10404000C6B2042E05D2054988190122694602F03C
:10405000BAF8601CC4B2022CEBDBF8BDB1BA002088
:104060002DE9F04106463148006810B90020BDE84E
:10407000F0814FF0FF37002554E00120A840304088
:104080000121A94088424AD1284800683040B04206
:1040900046D12748006850F8254005F0D9F828B1E6
:1040A000A06A806840F00800A16A88602148405DED
:1040B000A0B305EB4500204901EB8000406868B3E0
:1040C00005EB45000A4602EB800041682046884720
:1040D0000746A06B0068C0B9E06B0078A8B944221D
:1040E0000021E06B02F08FF844220021206C02F0E6
:1040F0008AF80120E16B0870FF20E16B4880E16BDA
:10410000488805F0C8FAE16B4870E06B0078012838
:1041100004D14422D4E90F1002F055F800E0002742
:10412000681CC5B2142DA8DB78B2A0E74CBB0020F8
:1041300048BB0020D06E01207420240070B50446D6
:104140000D460CB1064804604BF2D82000F0B0F8E0
:10415000042D04DA034901EBC50001F0E5FF70BD51
:1041600048BB00205822240000210170417000BF8C
:1041700003E0FF23C21C5354491C2029F9D3704784
:104180002DE9F041064600251D48006810B90020C1
:10419000BDE8F0811B480068B0431A49086000245C
:1041A00029E00120A04030400121A140884220D1D7
:1041B0001348006850F824701348005D98B104EB70
:1041C0004400124901EB8000806860B104EB4400B8
:1041D0000A4602EB8000816838468847054615B9D3
:1041E00000200949085500BF0DB168B2D0E700BFF3
:1041F00000BF601CC4B2142CD3DB68B2C8E7000057
:1042000048BB00204CBB0020D06E0120742024004D
:104210002DE9F041064600252148006810B900202C
:10422000BDE8F0811F48006830431E49086001F076
:10423000A9F9012802D04FF0FF30F1E700242BE06C
:104240000120A04030400121A140884222D11448E1
:10425000006850F824701448005D012814D004EB65
:104260004400124951F8200058B104EB44000A46BA
:1042700052F8201038468847C5B215B901200A49BE
:104280000855304607F0ECFA00BF0DB168B2C7E739
:1042900000BF00BF601CC4B2142CD1DB68B2BFE702
:1042A00048BB00204CBB0020D06E012074202400AD
:1042B00070B5044600254CB1681EFFF761FF054844
:1042C000046000BF00F008F8054601E06FF0040547
:1042D000284670BD30BC002010B50024104800787E
:1042E000D8B91048006806F0AFFB0F4908600846CF
:1042F000006880B10B48006868B10A4801680A4844
:10430000006820F049FC08B1641F06E00120044960
:104310000870002401E06FF00404204610BD000086
:104320002CBC002030BC002028BC0020034B18709F
:10433000034B1970034B1A707047000010BC00202B
:1043400011BC002012BC00202DE9FE4305460C469E
:104350000CB9BDE8FE83284A07CA8DE80700062D80
:104360002FD005DC5DB1012D18D0022D36D119E01A
:10437000072D2AD0092D2CD00F2D2FD12AE003F0A4
:104380000FFE8046FEF7A2FA461C03F009FE074620
:1043900032463946204601F016FF29E020461FF03C
:1043A0002BFE25E020F0F2FB8046FEF78FFA461C3C
:1043B00020F0ECFB074632463946204601F003FF69
:1043C00016E0204620F0C4FE12E020461FF0A6F9B9
:1043D0000EE000BF204605F097FD09E06846FEF7B5
:1043E00075FA461C32466946204601F0ECFE00BFD5
:1043F00000BF00BFADE7000064212400F8B50E4601
:10440000074600240FE03D196878A978000440EAC7
:104410000120E978084300906846FFF71BFB0098ED
:10442000241DE870A4B2B442EDD3F8BD70B50346C4
:104430000C46FF200021214607E0CEB29E5D46409B
:10444000F5B2034E705D4E1CB1B29142F5DB70BD0A
:10445000741F24002DE9F04F87B081468B4600245D
:10446000A2460020059000BF00BF04904FF4E46016
:1044700002F0C4FB4FFA80FA3F48007800F0800059
:10448000802873D15946484600F098F818B104982E
:1044900007B0BDE8F08F002460E019F8040000F0D8
:1044A000F8003649C9690969097801F0F8018842BC
:1044B00052D119F804004FF07F4101EA0060611CFD
:1044C00019F801104FF47F0202EA01410843A11CD0
:1044D00019F80110121202EA01210843E11C19F82F
:1044E000011008430590059820F07F474FF0000821
:1044F0004FEAEA704FF480611AEB010140F10000CD
:10450000CDE902104FF400017A1A68F100004B1354
:104510000021A2FB03CE00FB03E002FB0100CDE97A
:1045200000C0604601A90EC9FEF73FF94FF4000331
:10453000C51841F10006280C40EA0640C1B2601CD3
:1045400009F80010280A40EA0660C1B2A01C09F868
:104550000010E01C09F80050201D84B25C459CDB73
:1045600059464846FFF74AFF03E0FFE74FF0FF30A8
:10457000049004988CE70000D8B900205C14240053
:104580007047704770B5002540F2247002F036FB8A
:104590000546C5F3421001280FD100240BE0C4EBFF
:1045A000C401890001F5857000230522042103F070
:1045B0005BFB601CC4B2082CF1DB70BD70B50D460E
:1045C000064600240BE0321950789178000440EA46
:1045D0000120D1780843FFF733FA241DA4B2AC427E
:1045E000F1D3002070BD0000002001490870704721
:1045F00047BA0020024909688143014A11607047A7
:10460000F0B900202DE9F0410326F71F00BF362046
:1046100002F0F4FA4AF6552188421BD14FF4F670A5
:1046200002F0ECFA0446E04385B229464FF4F670F6
:1046300003F00AFB4FF4F67002F0E0FA0446A542DC
:1046400008D10027E04385B229464FF4F67003F005
:10465000FBFA03E0701EC6B2002ED8DC00BF38465D
:10466000BDE8F0812DE9FC5F0446894692465E482C
:10467000046000681421A0FB01134FF40002002025
:10468000A1FB027B03FB02B201FB00214FF4E162BC
:1046900003463846FEF789F805464FF47A72002340
:1046A000FEF783F830230025A0FB032601FB0361FE
:1046B00000FB05154FF47A73002110462A46A0FB33
:1046C000035602FB036200FB012040F6F2720B4628
:1046D000CDE9005028460199FEF767F8434A03C226
:1046E0004248D0E90010A1FB012300FB013301FB8C
:1046F00000303F49C1E900203C4903C9A0FB0053F9
:1047000001FB003301FB0031142200232846FEF791
:104710004CF8074614220023FEF747F8354A03C237
:104720003548C0F8009000681421A0FB01314FF417
:1047300000020020A3FB025B01FB02B103FB00119E
:104740004FF4E16203462846FEF72FF807464FF480
:104750007A720023FEF729F8302500220346A3FBD6
:10476000050601FB056103FB02134FF47A72002179
:10477000A0FB025603FB026200FB012040F6F2722E
:104780000B46CDE9005028460199FEF70EF81B4A6A
:1047900003C21A48D0E90010A1FB012300FB01333A
:1047A00001FB00301649C1E90020144903C9A0FBF0
:1047B000005301FB003301FB003114220023284683
:1047C000FDF7F3FF074614220023FDF7EEFF0D4A25
:1047D00003C20D48C0F800A000680C4948430C49CA
:1047E0000860BDE8FC9F0000B8BA0020C0BA0020F5
:1047F000C8BA0020D0BA0020D8BA0020E0BA002001
:10480000E8BA0020F0BA0020FCBA0020166C0100C3
:1048100000BB00202DE9F04104460D4617464FF03D
:1048200000080020206094B18DB187B100260BE014
:1048300005EB8602518835F8260007F0BFFB21689A
:1048400008432060701C86B2BE42F1DB01E06FF0CD
:1048500001084046BDE8F08138B504460D480068BF
:1048600020B120460B490968884711E00DE000207F
:10487000009004E09DF80000401CC0B200909DF83C
:1048800000000928F6D3601E84B2002CEFDC00BFC4
:1048900038BD00004CBA00202DE9FF4F89B0064614
:1048A00017461C46169D4FF0000800200890079000
:1048B000069081460A98305C4FF07F4101EA006122
:1048C0000A98401C305C4FF47F0202EA0040084323
:1048D0000A99891C715C121202EA012108430A99A3
:1048E000C91C715C40EA01084FEAD860079028F0C3
:1048F0007F40A0F500000890FE48007888B9C8F312
:104900008060069094F8A4110698814205D0FA4977
:10491000C9694968088800F0C3FA069884F8A401B8
:1049200024E0F4480078012820D1C8F38060069084
:1049300094F8A401012816D0EF4840684068008828
:1049400030B1ED4949684968088802F0BFF80AE0CB
:10495000E94880694068008828B1E7498969496861
:10496000088802F0B3F8012084F8A401E348007C31
:10497000042803D0E148007C05287DD1687900280F
:104980007BD0D4F89801002815DDD4F89401401E9E
:10499000C4F89401D4F89401002802DA2879401E62
:1049A00001E0D4F89401C4F894010898D4F8941163
:1049B00044F8210011E0002004E0089944F8201098
:1049C000411CC8B229786A7891FBF2F1491C8142F6
:1049D000F3DC2879401EC4F89401D4F894010490C3
:1049E0000021029103918A464FF0010917E00498D3
:1049F00054F82000E96851F8291080FB0132DDE904
:104A0000020118184A41CDE9020229790498401C94
:104A100090FBF1F201FB1200049009F10109E87822
:104A20004845E4D81AE0049854F820002A78A2EB0C
:104A30000902E96851F8221080FB0132DDE9020128
:104A400018184A41CDE9020229790498401C90FBCC
:104A5000F1F201FB1200049009F101092878401CD1
:104A60004845E0D8DDE90210820042EA917A0AF571
:104A7000000ABAF1000F01E0AFE0ADE002DA4FF05A
:104A8000000A04E0BAF1807F01DB6FF07F4A94F8FE
:104A9000B00100286CDD9948007C042827D1D4F8A7
:104AA000AC01642819D804F5D4746068C0F16400BE
:104AB0002168484361680AFB01006421B0FBF1F002
:104AC0000590C4F800A06068A96808446438606074
:104AD00001206072A4F5D47409E0C4F8A8A1D4F848
:104AE000AC016438C4F8AC01002084F8B1018348FB
:104AF000007C05284BD1D4F8AC01B0F57A7F2BD8D7
:104B000004F5D4746068C0F57A702168A0FB0112C6
:104B100000234FEAEA7C6068A0FB0ABE03FB0AE3BD
:104B200000FB0C3011EB0B014241CDE900124FF4B8
:104B30007A72002308460199FDF737FE0590C4F804
:104B400000A06068A9680844A0F57A706060012040
:104B50006072A4F5D4741AE0C4F8A8A1D4F8AC012A
:104B6000A0F57A70C4F8AC01002084F8B1010EE021
:104B7000CDF814A0C4F8A8A1D4F8AC01A9680844E1
:104B8000C4F8AC01012084F8B00184F8B10194F8B4
:104B9000B10101281FD105210598B0FBF1F107985B
:104BA000C206069802EB806001EB00084FEA18602D
:104BB00039887054C8F307413888401C3154C8F311
:104BC00007213888801C31543888C01C06F80080C2
:104BD0003888001D388000BF00BF4848007C01288D
:104BE00007D04648007C022803D04448007C0328B4
:104BF0007ED1687900287BD0D4F898C1BCF1000F31
:104C000021DDD4F894C1ACF1010CC4F894C1D4F8FE
:104C100094C1BCF1000F04DA95F804C0ACF1010CAA
:104C200001E0D4F894C1C4F894C1DDF820C0D4F8F0
:104C300094A144F82AC095F801A0D4F89CC1D444AA
:104C4000C4F89CC122E04FF0000C07E0DDF820A082
:104C500044F82CA00CF1010A0AF0FF0C95F800A012
:104C600095F801B09AFBFBFA0AF1010AE245EDDC86
:104C70004FF0000CC4F89CC14FF0010CC4F898C16F
:104C800095F804C0ACF1010CC4F894C1D4F8A0C1EB
:104C9000D4F89CA1D4456FD395F801A0D4F89CC159
:104CA000D444D4F8A0A1D44566D9D4F8A0C1D4F88E
:104CB0009CA1ACEB0A0CCDF814C0D4F894210023CD
:104CC00000200146DDF814901FE054F822C0D5F80A
:104CD0000CA05AF829A08CFB0AAC1AEB00004CEB94
:104CE000010195F804A002F1010C9CFBFAFB07E01E
:104CF00075E00000A5BA00205C142400AC6A012015
:104D00000AFB1BC295F801C0E14495F803C0CC45ED
:104D1000DBD81AE054F822C095F800B0ABEB090BD1
:104D2000D5F80CA05AF82BA08CFB0AAC1AEB0000AB
:104D30004CEB010195F804A002F1010C9CFBFAFB7D
:104D40000AFB1BC295F801C0E14495F800C00CF1C4
:104D5000010CCC45DED895F802A0D4F8A0C1D4440B
:104D6000C4F8A0C14FEA907C4CEA810303F500032C
:104D7000002B02DA002305E030E0B3F1807F01DB95
:104D80006FF07F43DDF81CC04FEACC6ADDF818C035
:104D90000AEB8C6C0CEB03084FEA186CB7F800A018
:104DA00006F80AC0C8F3074AB7F800C00CF1010CB6
:104DB00006F80CA0C8F3072AB7F800C00CF1020CE3
:104DC00006F80CA0B7F800C00CF1030C06F80C8034
:104DD000B7F800C00CF1040CA7F800C000BF0DB07C
:104DE000BDE8F08F13490988B1F5807F16D0B1F581
:104DF000A07F0DD0B1F5487F16D1B0F5FA7F03D171
:104E000001210D4A117402E002210B4A11740CE0D9
:104E1000FA2802D10421084A117406E0FA2802D1C6
:104E20000521054A117400E000BF00BF0321034AB9
:104E30001174704782BA0020AC6A0120C06A012058
:104E400001200B49087000200A4908600A490860DF
:104E50000A4908600A4908700A4908700A49087036
:104E600003200A49087000200949087070470000B3
:104E7000ECB90020F0B90020E8B90020D8B9002032
:104E8000F8B90020EDB900203CBA002046BA002055
:104E900047BA0020014908807047000040BA00204E
:104EA00010B5044600200AF0DBFD2046FFF79AFF0C
:104EB000B4F5FA7F0FD13548007C01283FD1344842
:104EC0003249C860B62008700520487008208870F4
:104ED0000120487133E0FA2C2DD12C48007C0228A7
:104EE0000AD12C482949C860FA200870052048706A
:104EF00010208870012048712448007C04280AD1C1
:104F000025482249C8603220087001204870887006
:104F10004871802088601D48007C05280FD11F48FB
:104F20001A49C86064200870012048708870487170
:104F30008002886003E000201449487110BD1349C5
:104F4000087800EBD0714910A0EB410149B10F493D
:104F50000978481C00EBD071C1F347010B4AD170AE
:104F600008E00A490978881C00EBD071C1F34701B9
:104F7000064AD170054800780449497890FBF1F061
:104F8000401C0249087100BFD8E70000AC6A01204C
:104F9000D8192400481B2400401E2400A81E240009
:104FA00070B504460D46A08800B22249224A127804
:104FB00021F8120001211F4815F0C0FE1D481E49AE
:104FC000097830F911001D49096808441B49086037
:104FD00019480078401C18490870A06810B1207A60
:104FE0001AF016FE14480078042822D113490868E4
:104FF000C11700EB9171891009B2114A114B1B784E
:1050000022F8131000200D4908600B4908700D4864
:105010000078401C0B49087008460078192808DB06
:10502000002008701DF0D0FA18B11921044815F0BD
:10503000E7FC70BD16BC002024BC002020BC002072
:10504000E600012030B600202DE9FC4704460F465B
:105050009046002500200190814600BF73E0605D0E
:1050600000F0F8003C49C969096911F8081001F01D
:10507000F801884214D16D2008FB00F03749096817
:1050800001EB80060020364908703648334601AAF5
:10509000294600902046FFF7FFFB4FF0010900BFB3
:1050A0003148006850B331484079012826D10026A4
:1050B00020E0605D00F0F800274949680969895DD2
:1050C00001F0F801884213D16D2070432849096826
:1050D00001EB800A0120224908702448534601AAA6
:1050E000294600902046FFF7D7FB4FF0020900BF8A
:1050F000701CC6B21C4800688642DAD3B9F1000FB2
:105100001DD118484079D0B1605DBDF804106054DD
:10511000681C215CBDF80400401C2154A81C215CC3
:10512000BDF80400801C2154E81C215CBDF804007B
:10513000C01C2154BDF80400001D80B201904FF046
:105140000009281D85B23888A84288DCBDF8040013
:105150003880BDE8FC8700005C142400B4142400EF
:10516000A5BA0020AC6A0120B8142400C06A01204E
:10517000BC14240070B505460C4608484079012847
:105180000AD1002221462846FFF75EFF21882846E3
:10519000FFF734F9012070BD0020FCE7AC6A012064
:1051A00070B504460D466048007800B970BD012C0A
:1051B0000ED135B95D48007820F001005B490870D8
:1051C0002CE05A48007840F001005849087025E06A
:1051D000022C13D15648C0694068407A284030B14B
:1051E0005248007840F002005049087016E04F48DD
:1051F000007820F002004D4908700FE0042C0DD11A
:1052000035B94A48007820F004004849087005E0A4
:105210004648007840F00400444908704548007949
:1052200000F0030028B14348007900F00300022891
:1052300001D1032600E007263C4800783040B04208
:105240002CD13D48007800286CD13A48007800F015
:10525000010050B100BF01230A2211464FF4F5703E
:1052600002F002FD00BFFFF78BF932480079C0F36E
:10527000800060B101203149087000BF00231A4648
:105280001946800202F0F0FC00BFFFF77AF9002017
:105290002B49087001202849087043E0264800780F
:1052A000012839D123480079C0F38000B8B11F48E4
:1052B000007800F0010048B100BF01230022114630
:1052C000980202F0D1FC00BFFFF75BF919480079A2
:1052D000C0F3C000E8B1022001F06AFE19E000222C
:1052E00011464FF4806001F09BFC90B100BF002399
:1052F0001A4619464FF4806002F0B6FC00BF00BFAA
:10530000012300221146980202F0AEFC00BFFFF715
:1053100038F9002009490870002007490870012069
:105320000749087000BF41E7A6BA0020A7BA0020CD
:105330005C142400ABBA0020A8BA0020A9BA00204F
:10534000AABA002010B54FF0FF3400BF00BF1D48BF
:105350001D490978405CE8B91C480078012802D052
:105360001A480078B0B9882001F048FC1849164A5C
:10537000127821F812000846134A127830F8120009
:1053800040F00301882002F05FFC01200D490E4A25
:105390001278885400BF00BFC42001F09DFD00BFFB
:1053A00000BF3220FFF758FA00BF002400BF0648B4
:1053B00001780120884007490978084305490870A9
:1053C000204610BD38BA002044BA0020F8B90020A9
:1053D00034BA002046BA002010B54FF0FF3400BFA9
:1053E00000BFC32001F078FD00BF00BF4FF4FA708A
:1053F000FFF732FA00BF00BF0C480D490978405C46
:1054000001280ED10B480A4A127830F81210882071
:1054100002F01AFC00BF00BF00210448044A1278C1
:10542000815400BF002400BF204610BD38BA0020C0
:1054300044BA002034BA0020FF200549087000203B
:105440000449087004490860044908807047000056
:10545000E0B90020E1B90020E4B90020FAB9002049
:1054600070B5054600260DB9304670BD02F016FD38
:105470002C68284602F0A4FD2C48006840B902F0D0
:105480002BF8064600BFB01D08B93046EDE700BF57
:10549000802C0BD101210846FFF782FE00F056FC5C
:1054A0002349C96949680888FFF7FAFC2148006860
:1054B00020B3022C06D11E4949684968088801F0CA
:1054C00005FB1BE0402C06D1194989694968088809
:1054D00001F0FCFA12E0B4F5007F06D11449496AE4
:1054E0004968088801F0F2FA08E0B4F5004F05D1E8
:1054F0000F49C96B4968088801F0E8FA012C02D10C
:10550000012000F09FFB094800682043074908601C
:105510000020296B0860A96B086069680A7AFF217E
:10552000686B00F070FE30469FE70000D8B900209D
:105530005C142400B814240070B5044600250CB98E
:10554000284670BD2668204602F03AFD0C480068E7
:10555000B0430B490860206C20B10020216C08701A
:10556000216C48800648006838B902F003F8054607
:1055700000BF0DB12846E4E700BF2846E1E7000080
:10558000D8B9002001480078704700002CBC0020EA
:10559000002070470148006870470000E8B900200B
:1055A0000148008870470000FAB900202DE9FF4F3C
:1055B000054689460D9E002000230027002193E028
:1055C00055F821B056F821E0F34506D355F821B03F
:1055D00056F821E0ABEB0E0805E056F821B055F87F
:1055E00021E0ABEB0E08082421E0B8F1000F01D157
:1055F00000271EE04FEA840B28FA0BFB0BF00F0A82
:10560000BAF1000F0FD055F821B056F821E0F3455C
:1056100002D84FF0010B01E04FF0000B0BEB440BF5
:105620000BF0FF0705E0A4F1010B4FFA8BF4002CFF
:10563000DBDA00BF9B4603EBDB7E4FEA6E0EA3EB8B
:105640004E0EBEF1000F06D012F800B04BEA070B69
:1056500002F800B00BE000F1010B0BF0FF0012F8B4
:1056600000B04FEA077E4BEA1E6B02F800B003F170
:10567000010B0BF0FF03BB4607EBDB7E4FEA6E0E20
:105680004FFA8EF42AE04FEA840B28FA0BFB0BF05A
:105690000F0C9B4603EBDB7E4FEA6E0EA3EB4E0E28
:1056A000BEF1000F06D012F800B04BEA0C0B02F866
:1056B00000B00BE000F1010B0BF0FF0012F800B09E
:1056C0004FEA0C7E4BEA1E6B02F800B003F1010BAF
:1056D0000BF0FF03A4F1010B4FFA8BF4002CD2DA8C
:1056E00001F1010B0BF0FF014945FFF669AF03F132
:1056F000010B0BEBDB7E4FEA6E0E0EF1010E0EF08E
:10570000FF00107000F1010B0BF0FF0EDDF80CB084
:105710008BF800E0BDE8FF8F00A070474748284D98
:1057200029335832585F44454D4F5F76312E365FEE
:1057300041435F76302E35286275696C643A4A6160
:105740006E20323120323032365F30303A32353AE4
:105750003332290000A070474748284D293358327A
:10576000585F44454D4F5F76312E365F41435F763B
:10577000302E35286275696C643A4A616E20323188
:1057800020323032365F30303A32353A3332290007
:105790000020704700A070474748284D29335832F1
:1057A000585F44454D4F5F76312E365F41435F76FB
:1057B000302E35286275696C643A4A616E20323148
:1057C00020323032365F30303A32353A33322900C7
:1057D0000148007870470000F4B9002010B500249B
:1057E0004FF4A16001F00AFA044621464FF4A1608B
:1057F00002F02AFAC4F30E0010BD2DE9FF4FC3B02A
:1058000080469146DDF848A100240026A346FF22E9
:105810000021684600F0F7FC449801785198007820
:10582000814211D0601CC4B20DF80400611C0DEB64
:1058300001004A46449900F0C6FC04EB0900C4B2DA
:1058400006EB4900C6B204E0601CC4B200200DF8AB
:10585000040000257AE058F825005AF825108842FF
:1058600006D358F825005AF82510401A419005E053
:105870005AF8250058F82510401A419008271CE0D6
:10588000419810B94FF0000B19E0B9004198C84099
:1058900000F00F004090409868B158F825005AF881
:1058A0002510884201D8012000E0002000EB4700CD
:1058B00000F0FF0B03E0781E47B2002FE0DA00BFD4
:1058C000304606EBD0714910A6EB410131B11DF80D
:1058D000040040EA0B000DF8040009E0601CC4B2AB
:1058E0001DF804004FEA0B7140EA11600DF8040046
:1058F000701CC6B258460BEBD07149104FB221E074
:10590000B9004198C84000F00F004290304606EBC5
:10591000D0714910A6EB410131B11DF80400429944
:1059200008430DF8040009E0601CC4B21DF804002F
:105930004299090740EA11600DF80400701CC6B2D4
:10594000781E47B2002FDBDA681CC5B24D4582DBFA
:10595000701C00EBD0714910491CCCB28DF800408E
:10596000601CC1B250980170621C6946469800F0F4
:105970002AFC47B0BDE8F08F01480078704700006E
:10598000EDB900200148006870470000F0B9002020
:105990000020704700B50948007870B90748FEF745
:1059A000E3FB042005494870002004E00349C91CBA
:1059B0000854411CC8B20428F8DB00BDE46E012085
:1059C0000279014B1A7070472DB6002070B504465D
:1059D0000D46207E211D15F061FB70BD7CB504468F
:1059E0000D4600200190AA208DF804008DF80500D6
:1059F0000549064A00951278885C2346022201A9CF
:105A0000034E3668B0477CBD48BA002044BA002037
:105A100060BA00203EB50446002002900190200AA2
:105A20008DF80800E0B28DF8090002200A490B4AFF
:105A300000901278885C01AB022202A9084D2D6803
:105A4000A8479DF804004FF47F4101EA00209DF82B
:105A5000051008433EBD000048BA002044BA0020AB
:105A600060BA00202DE9FC4105460E461446002090
:105A70000190280A8DF80400E8B28DF805004FF671
:105A8000FF7000EA44000A490A4A00901278885CD4
:105A90003346022201A9084F3F68B8474FF6FF700E
:105AA00000EA4401304601F0AAFDBDE8FC81000097
:105AB00048BA002044BA002060BA002038B5044635
:105AC00000200090DD208DF800008DF801008DF899
:105AD00002400549054A1278885C03226946044B56
:105AE0001B68984738BD000048BA002044BA00201F
:105AF0005CBA002038B504460D4600200090200A0C
:105B00008DF80000E0B28DF80100280A8DF802003F
:105B1000E8B28DF803000549054A1278885C042232
:105B20006946044B1B68984738BD000048BA0020FE
:105B300044BA00205CBA002070B50446FEF744FA6F
:105B4000FEF760FD10B16FF0030070BD47F6FF7106
:105B50004FF4A16002F078F86CB1A18800222068AF
:105B600000F0F7FA10B16FF00300EEE7FFF704FF63
:105B700008B900F027FB20214FF4E06002F064F840
:105B800030214FF4E06002F05FF800BF4FF4E360B3
:105B900001F034F800F001000028F7D040F2127054
:105BA00001F02CF845B2284601F0C2F9204601F078
:105BB000B7F900BF0B48006810B10A480068804779
:105BC00000BF00BF722001F019F8064646F011012F
:105BD000722002F039F800BF01200349087000204C
:105BE000B3E70000FCB90020F8B900200020034909
:105BF000087003490870034908707047F4B9002021
:105C0000F5B90020F6B9002010B504460C4800781C
:105C1000C0F3400098B144B900BF00231A461946AA
:105C20004FF4806002F020F807E000BF012300225B
:105C30001146980202F018F800BFFEF7A2FC10BD52
:105C4000ABBA002010B504460E48407800F00100C1
:105C5000A8B1012C0AD10C48007880B900BF0123FB
:105C600000221146980201F0FFFF08E000BF002368
:105C70001A4619464FF4806001F0F6FF00BFFEF7A8
:105C800080FC10BDB1BA0020A9BA0020F8B50446C6
:105C90000D4616460020009004F0020018B10121C4
:105CA0000420FFF77DFA04F0040018B1002104205D
:105CB000FFF776FA04F0020010B101200C490870D9
:105CC00032462946204601F015FB044604F0040044
:105CD00050B10020064908700648007900F0030022
:105CE000012801D18DF80200ADF800400098F8BD00
:105CF000A4BA0020ABBA002070B506460D460024B9
:105D00001048C06920B129883046FEF757FC08B119
:105D1000204670BD00222946304600F053F8044367
:105D20000848C0694068007A012809DD0648007803
:105D3000012805DD01222946304600F043F80443DE
:105D40002046E6E75C142400AC14240000B500F003
:105D500003F8002000BD000000B5002000F012F89C
:105D60000648C0694068007A012806DD04480078CA
:105D7000012802DD012000F005F800BD5C142400BC
:105D8000AC14240030B5024602EBC2030C4C24686C
:105D900004EBC30000230360436000248460C460FC
:105DA000036143614376002107E0002400F12005F0
:105DB00005EBC1052C606C60491C0529F5DB30BD85
:105DC000B01424002DE9F74F85B08046002700204D
:105DD00004908146039002900190009000BF0798C4
:105DE00000EBC000A849096801EBC00400BF42E114
:105DF00018F8070000F0F801A448C0690269079884
:105E0000105C00F0F800814275D118F807004FF0DF
:105E10007F4101EA0060791C18F801104FF47F02FD
:105E200002EA01410843B91C18F80110121202EAF3
:105E300001210843F91C18F8011008430390039846
:105E400020F07F40A0F5000002900398C0F380602E
:105E50000190019808B101206076607E00B908E1E8
:105E6000217E0198814203D0FFF776FF0120607602
:105E70000198207644F620612068884202DA206882
:105E8000401C2060019898B98149206809688842BF
:105E90000EDD0298002801DD029801E002984042E0
:105EA00000907C4900980968884201DD49F00109A9
:105EB0006068182807DA0298774A616852F821105A
:105EC00080FB015608E002986168C1F12F01724A17
:105ED00052F8211080FB01566068C11700EB9171E8
:105EE0008910A0EB810139B101290CD0022911D010
:105EF00003291FD116E0BBE0D4E902104919704113
:105F0000C4E9021017E0D4E9041049197041C4E94A
:105F1000041010E0D4E90210491B60EB0600C4E94C
:105F2000021008E0D4E90410491B60EB0600C4E944
:105F3000041000E000BF00BF60682F287AD1042061
:105F4000049011E00498401E04F1200101EBC00010
:105F5000D0E9001004F12002049B02EBC302C2E965
:105F600000100498401E049004980028EADCD4E94C
:105F70000201C00F40EA4100C917C4E90201D4E997
:105F80000401C00F40EA4100C917C4E90401D4E983
:105F9000023C1846DA17A3FB001A0CFB03A003FB14
:105FA0000202D4E9043C18464FEAE37BA3FB00AEAF
:105FB0000CFB03E003FB0B0311EB0A0142EB0300B4
:105FC000C4E908100021A160E160216161610198CC
:105FD00088BB3248D4E90831D0E90020D21A884180
:105FE00009DA2E48D4E90A23D0E90010891A984129
:105FF00001DA49F00209D4E90830D4E90C219A1AEF
:1060000060EB01002649D1E900319A1A814125DA75
:10601000D4E90A30D4E90C219A1A60EB0100204936
:10602000D1E900319A1A814118DA2068602815DD1B
:1060300049F0040912E0FFE71A48D4E90832D0E930
:106040000010C91A904109DA1648D4E90A13D0E9B8
:106050000020511A984101DA49F008096068401C93
:1060600060603021606890FBF1F201FB120060601B
:1060700000BF381D87B206980088B8423FF7B8AE17
:10608000484608B0BDE8F08FB01424005C1424002A
:10609000F8BA002000BB002078192400C8BA0020FC
:1060A000E8BA0020D0BA002010B50446204602F01D
:1060B0007BFE10BDF8B507460D46002411E0E00058
:1060C00047FA00F0C0B2009004EB450086B2182EEB
:1060D00005D2054988190122694600F074F8601C50
:1060E000C4B2022CEBDBF8BD446A012070B5054652
:1060F0000C46164604B970BD32462146284600F0CB
:106100005FFB32462146284600F0EAFB00BFF2E77B
:1061100010B518220021034800F075F802F06EFF58
:1061200010BD0000446A0120F0B505462E68AF8816
:1061300000246EB167B100BF08E006EB840251880D
:1061400036F8240001F0DDFB601C84B2BC42F4DBB5
:10615000F0BD2DE9F04704460E4617464FF0000803
:106160000025A9464CB346B300BF24E034F825000F
:1061700000F4704098B904EB8502518834F825008A
:1061800001F062FD34F8250000F038FD814604EB93
:1061900085004088484501D06FF0030808E037B912
:1061A00004EB8502518834F8250001F0C5FD00BFDD
:1061B00000BF681C85B2B542D8DBFEF7E3F9404664
:1061C000BDE8F087704770B504460D462B46214662
:1061D00041EA030086070CB105B10AB9002070BD81
:1061E0003EB904E0186808601B1D091D121F042A2F
:1061F000F8D204E0187808705B1C491C521E002A73
:10620000F8D12046EBE7F0B5044613462246950741
:106210004FF07F4000EA01604FF47F0707EA014733
:1062200038434FF47F4707EA01273843CFB240EAAB
:1062300007060CB90020F0BD2DB902E01660121D52
:106240001B1F042BFAD202E01170521C5B1E002BA4
:10625000FAD12046EFE700002DE9FF4F8DB004464C
:106260008A460AEB4A00594901EB8005584800EB81
:106270004A17E87A0C9068790B90687A0A90A87AA5
:10628000099028790890E87807900C9E00200690E5
:1062900005900C200490687820B1DFF83891DFF881
:1062A00038B103E0DFF83491DFF834B1386948459C
:1062B0000AD97869484507D90798002804DD0026DF
:1062C000DDF828800120059038697861059800285C
:1062D00060D14448844202D9A4F5000401E04FF49F
:1062E0000064414884421AD34048844207D23E4861
:1062F000201A00EB40003C4901EB40040FE03C4811
:10630000844205D23848201A374901EBC00406E020
:106310003548201AC0EBC000334901EB400400BFF0
:10632000344830F816C00146079831F81000089933
:106330004843A0FB0B1062460023CDE9001008463D
:106340000199FCF732FA22460023CDE90201FCF75D
:106350002CFA80460998804508D90B98864202DAC3
:10636000701CC6B20EE0DDF8248012E00A98804569
:1063700007D2002E02DD701EC6B203E0DDF82880D1
:1063800007E006E00498401EC0B20490049800287C
:10639000C6D100BF0F9880F80080109806700F9843
:1063A00001780898814203D0069840F001000690D9
:1063B000109801780798814203D0069840F00200B7
:1063C0000690069811B0BDE8F08F0000B06501207E
:1063D000106601203333F3009A995900CDCCEC00BC
:1063E00014AE47000008800000127A00A0987B00DD
:1063F000401F7D005419240010B5014600200DE017
:1064000000EB4003074C04EB8302137823B193782D
:10641000B1EBA30F00D110BD421CD0B20828EFD3BE
:106420000020F8E7B06501202DE9FF4F8FB09046BE
:106430001E460025AFE105EB4500DA4901EB80007F
:106440000D900D9880780C900D98007800287DD0E4
:106450000020099007900D98407810B1DFF848B3FC
:1064600001E0DFF848B30D9948780AAA0BA901F0BA
:106470001BFDCF4800EB4514CE4800EB4507208BB1
:10648000069006988000052190FBF1F01FFA80F934
:106490000698400090FBF1F080B20890207F58B140
:1064A0000698400090FBF1F080B20990607F18B927
:1064B0000020608301206077387830B9069840006A
:1064C000052190FBF1F080B209900998A9EB00003A
:1064D000C82803DDA9F1C80080B209900898A9EB8B
:1064E0000000C82803DDA9F1C80080B20890002090
:1064F000059047E105990F98405C4FF07F4101EA14
:1065000000610598401C0F9A105C4FF47F0202EA6C
:10651000004008430599891C0F9A515C4FF47F4253
:1065200002EA012108430599C91C0F9A515C0843EE
:1065300004901F21049801EAD0600390049820F091
:106540007F4A0C990398884266D100E021E10699C0
:1065500001EB810188B2984931F81510491C964A1F
:1065600022F815100B998A4509D902F1100131F86A
:106570001510491C8AB29049103121F815208E4916
:10658000103131F81510B1EB201F0DDB8A4991F85D
:1065900020100122AA401143874A82F820100022CD
:1065A0008549103121F81520834931F815108142B1
:1065B00008DB00228049103121F8152000217E4A95
:1065C00022F81510618B0998814205D10020A06046
:1065D00020604FF080706060618B0898814201D12B
:1065E0000020E060608B484517DAA0685044A06046
:1065F000E0685044E060608B401C60832068504538
:1066000001D2504600E0206820606068504501D902
:10661000504600E060686060B0E0099881450FDD99
:10662000A1680998A9EB0000B1FBF0F048F825003B
:10663000E1680898A9EB0000B1FBF0F0079003E0D7
:1066400048F825A0CDF81CA058F8250020610020AE
:106650006083099020770A990798884203D30B99A1
:106660000798884204D931780120A840014331704D
:10667000514890F820000121A940084098B300201B
:10668000029020680B99884210D92068ABFB00105B
:106690004A4A0023CDE9001008460199FCF785F825
:1066A000029031780120A8400143317058F825004C
:1066B000584510D958F825100298814202D958F847
:1066C000250000E0029848F8250031780120A84014
:1066D0000143317006E020680B99884202D9029884
:1066E00048F8250000BF31780120A840014099BB3F
:1066F000314890F820000121A940084060BBCBEB55
:10670000CB012069B1EBC00F05D80BEBCB012069A1
:10671000B1EBC00F21D2206800EB8000400061681F
:1067200001EB41018900884217D2387830B9012045
:1067300038703178A8400143317013E07878401CFC
:106740007870787813280DDB30780121A940084350
:1067500030700020787005E002E00020787001E0E1
:106760000020787001203870134890F82000012133
:10677000A9408843104981F8200008E00598001DD1
:1067800080B20590109905988842FFF6B3AE00BF1D
:1067900000BF681CC5B2082DFFF44DAE13B0BDE8B4
:1067A000F08F0000B06501209A99D90014AEC7009F
:1067B0001066012010670120206A01206666E6004D
:1067C0002DE9F0478CB081468A461646202104A860
:1067D000FCF753F800200390002703AB04AA5146AE
:1067E0004846FFF721FE00246FE00120A0409DF8FD
:1067F0000C100840002866D004EB4400354901EB3A
:10680000800504A951F8240001AB02AA2146FFF734
:1068100023FD0746A878C0F3830807F0020090B173
:10682000297A491DC8B29DF80420414602F0CCFCEB
:106830009DF80400E8702A7A06F1200341469DF88D
:10684000040000F0D7FE07F0010048B39DF80800EF
:106850002871E87900F0010060B19DF808204146F8
:10686000032002F0B1FC287906F1400300224146E2
:1068700000F0AFFEE87900F0020060B19DF808205A
:106880004146042002F0A0FC287906F140030122D1
:10689000414600F09EFEFF220F21404602F01CFC04
:1068A00087B101200C4901EB4411087700200A4907
:1068B00001EB441148770120A040084909780843BA
:1068C0000649087000BF601CC4B2082C8DD30CB000
:1068D000BDE8F087B06501201066012079BA00207C
:1068E0002DE9F74F8CB0064600200B90E0E00B98A6
:1068F00000EB4000724901EBC004607D80100990FC
:10690000607D00F0030008900998FFF775FD0A907C
:106910006C490A9801EB4010008B05900A9800EB37
:106920004000694901EB80004079049005984000DF
:10693000052190FBF1F087B2059838441FFA80F8E2
:106940000A9901EB4101604A02EB8101487807AAEC
:1069500006A901F0A9FA207D00287CD0A8EB070049
:10696000C82802DDA8F1C80087B2002597E0705D55
:106970004FF07F4101EA0060691C715C4FF47F02B7
:1069800002EA01410843A91C715C121202EA0121CA
:106990000843E91C715C084303901F21039801EA36
:1069A000D0600290039820F07F49617D0298814277
:1069B00073D1A089B84207D10020A060C4F8049028
:1069C000C4F80090E0812082A08940451DDA4A4643
:1069D000D4E90010FDF7DDFA8246A0685044A060BB
:1069E0000698824502D9E089401CE081608AB0EBBC
:1069F0001A2F02D2208A401C208220686060C4F8CE
:106A00000090A089401CA08146E0A8EB070080B25E
:106A100000904FF0FF0A94F816B0A1680098B1FBFF
:106A2000F0F00190E1890098B1EBE00F06DDBBF1D9
:106A3000000F03DDABF1010000F0FF0A218A00988E
:106A4000B1EBE00F0CDA07990198884208D204985C
:106A5000834505DA00E027E00BF1010000F0FF0AB2
:106A6000BAF1FF0F14D00899491DC8B252460999CE
:106A700002F0AAFB84F816A05046099901F0D4FA56
:106A800060820E9B20335046DDE9082100F0B2FD04
:106A90000020A08107E000E000BF281D85B20D980E
:106AA0008542FFF664AF00BF0B98401CC0B20B904C
:106AB0000B982028FFF41BAF0FB0BDE8F08F00004B
:106AC0002067012010660120B065012010B5044642
:106AD000012008F0C5FF2046FEF784F9FA2C0BD1FF
:106AE0001A481B49C8607E2008700520487008209D
:106AF00088700120487103E000201549487110BDDD
:106B00001349087800EBD0714910A0EB410149B15D
:106B10000F490978481C00EBD071C1F347010C4ABA
:106B2000D17008E00A490978881C00EBD071C1F3E4
:106B30004701074AD170064800780549497890FB1B
:106B4000F1F0401C0249087100BFD8E7401D240045
:106B5000C06A01200020014908707047F7B9002081
:106B600010B50122114640F20C5000F059F80149CD
:106B7000087010BD2EB8002070B504460D460548BB
:106B8000006830B100F06CFD29462046014A1268C9
:106B9000904770BD74BA00202DE9F04114460E46AE
:106BA00007004FF000051FD0F6B11248008884425C
:106BB00001D904460425601E4FF44861884208D27A
:106BC00021463846FFF7D8FF21463846FDF716FC28
:106BD00002E08C4200D900240748026812B1214625
:106BE00038469047348001E06FF001052846BDE843
:106BF000F08100003ABA002008BA002070B50446BF
:106C000000250648006830B100F02AFD20460349FF
:106C1000096888470546284670BD00006CBA002008
:106C20002DE9F04107460C461646301B401C012159
:106C300001FA00F0401EA0401FFA80F80025084825
:106C4000006848B100F00CFD3846054909688847DE
:106C5000054605EA080525412846BDE8F081000003
:106C60006CBA00202DE9F047002500260027A84631
:106C7000A94600241BE0C4EBC4014FF4897202EB67
:106C80008100FFF7BBFF814600200CE0820049FA3B
:106C900002F202F00F0100EB84031E4A1268203258
:106CA000D154411CC8B20428F0DB601CC4B2082CCB
:106CB000E1DB4FF48F764FF49078002425E0C4EBAD
:106CC000C40106EB810188B2FFF798FFC5B2C4EB9F
:106CD000C40108EB810188B2FFF790FFC7B20D48ED
:106CE0000068403020F814500A480068403030F8FE
:106CF00014104FF6FF7000EA0720014305480068B2
:106D0000403020F81410601CC4B2082CD7DBBDE85A
:106D1000F087000030B8002001490860704700008B
:106D20004CBA0020034B1860034B1960034B1A60E8
:106D30007047000014BB002018BB00201CBB0020C3
:106D40002DE9F04106AC94E8F010DFF84C80C8F86B
:106D50000000DFF84880C8F80010DFF84480C8F869
:106D60000020DFF84080C8F80030DFF83C80C8F829
:106D70000040DFF83880C8F80050DFF83480C8F8E9
:106D80000060DFF83080C8F80070DFF82C80C8F8A9
:106D900000C0BDE8F0810000FCB9002000BA00206E
:106DA00004BA002008BA00200CBA00201CBA002047
:106DB00014BA002018BA002010BA002030B50346DB
:106DC0006FF00100D9B1D2B1042B18DA282444EABB
:106DD00043040B4D2C700B4C21600B4C22600B4C70
:106DE0000B4D2C600B4C0C4D2C600C4C0C4D2C6046
:106DF0000C4C0D4D2C600D4C0D4D2C60002030BD09
:106E000048BA00205CBA002060BA0020BD5A2100B8
:106E100064BA0020F55A210068BA0020155A2100F2
:106E20006CBA0020655A210070BA0020DD5921009B
:106E300074BA002010B50446002C2ED017494868BB
:106E4000002102F0F1F915498868002102F0ECF9FF
:106E500012498869002102F0E7F91049C869002148
:106E600002F0E2F90D49486A002102F0DDF90B4910
:106E7000C86B002102F0D8F908490868002102F027
:106E8000D3F9FFF745F900F09BF80020FEF702F870
:106E9000FDF7C0F800200249087010BD5C14240002
:106EA000F4B9002010B5FEF797FA00231A461946E8
:106EB0004FF4816000F0D8FE4FF440614FF4A160C0
:106EC00000F0C2FE0123002211464FF4816000F061
:106ED000CBFEFEF737FA10BD10B504460348006834
:106EE00018B1204601490968884710BD64BA0020DE
:106EF000002003490870034908700349087070476F
:106F0000F4B90020F5B90020F6B900200121814034
:106F1000024A12781143014A1170704746BA0020A4
:106F2000704700000149086070470000E8B9002080
:106F300001490870704700003FBA0020F8B50446C8
:106F40000D461746002000900DF10101684602F041
:106F5000CFFCC4EB04201DF8051090FBF1F086B2C5
:106F60003046F8BDB0F5486F0ADC0146C21700EBA9
:106F7000927292104FF6FF7303EA8202014B1A805D
:106F8000704700003ABA002039B901228240074B0D
:106F90001B789343054A137006E001228240034B9D
:106FA0001B781A43014B1A70704700000EBC00207A
:106FB000024909680143014A11607047F0B9002095
:106FC00010B5002009490870062200210848FFF783
:106FD0001AF900200749087007490870012007497D
:106FE000087000200649087010BD0000A6BA0020F5
:106FF000ABBA0020A7BA0020A8BA0020AABA002085
:10700000A9BA00202DE9F84F83468A464FF00009BF
:107010007BE04FEAC9004BFA00F0C0B2009009EBE8
:107020004A00C4B2062C6CD23A49081901226946BA
:10703000FFF7C9F8032C61D136480078364901EBD7
:10704000D01000784FF47A7110FB01F0C317054699
:1070500030480078C0F302103049085C4FF400015A
:10706000A0FB017001462A463846FBF79EFB2949E2
:107070004978A0FB01012A49086026480078264982
:1070800001EBD01000784FF47A7110FB01F0C317B8
:10709000054620480078C0F302102049085C4FF4F0
:1070A0000001A0FB017001462A463846FBF77DFB34
:1070B00018498978A0FB01011A4908601548007831
:1070C000154901EBD01000784FF47A7110FB01F0F4
:1070D000C31705460F480078C0F302100F49085C3B
:1070E0004FF40001A0FB01712A463846FBF75DFB17
:1070F0000849C978A0FB01010B49086001200B4930
:10710000087009F1010000F0FF09B9F1020F80DBFE
:10711000BDE8F88FABBA002075192400701924005F
:1071200088BA002084BA00208CBA0020A6BA0020B9
:1071300010B5044621464FF4847000F085FD10BD63
:107140002DE9F04104460D4600270026E0B2A0429A
:1071500024D115B1012D1AD10CE04FF48470FFF742
:107160004DFD064646EA0400C1B24FF4847000F0BB
:107170006BFD12E04FF48470FFF740FD064626EAEF
:107180000400C1B24FF4847000F05EFD05E0E1B28E
:107190004FF4847000F058FD00BF01E06FF001076C
:1071A0003846BDE8F0812DE9F04705460C46174604
:1071B0000026B0466FF00109082D17DA022C15DA07
:1071C000C5EBC5004FF48F7101EB800000EB440864
:1071D0004046FFF713FD064626F0FF063E433146C4
:1071E000404600F031FD4FF0000900E000BF484686
:1071F000BDE8F0872DE9F04704460D461646002706
:10720000B8466FF00109082C1DDA042D1BDA0D2E8B
:1072100019DAC4EBC4004FF4897101EB80084046D1
:10722000FFF7ECFC0746A9000F2088408743A90020
:1072300006FA01F0384387B23946404600F004FDB3
:107240004FF0000902E0082C00DA00BF4846BDE814
:10725000F087000070B504460D46606801280DD126
:107260000F480078012809D00220FDF7C3F9082053
:10727000FFF79EFE01200A49087010E0207900F017
:10728000020060B106480078022808D00820FDF707
:10729000B1F90220FFF78CFE02200149087070BD91
:1072A00014BC002070B504460D46606801280DD15D
:1072B0000F480078012809D00220FDF79BF908202B
:1072C000FFF776FE01200A49087010E0207900F0EF
:1072D000020060B106480078022808D00820FDF7B7
:1072E00089F90220FFF764FE02200149087070BD91
:1072F00014BC00202DE9F04104460E4615463448E2
:107300000078C0F3810000285FD032480078002860
:107310005BD004F0020080B12F480088B0F5487FB0
:1073200009D02D480088B0F5A07F04D02A480088F5
:10733000B0F5807F01D1FEF709FD2848007810B133
:107340002046BDE8F08122480078C0F38100012882
:107350002BD004F0040038B11D480078C0F3810040
:10736000022801D124F004042888F0B11C480078D8
:1073700001281AD1002718480088B0F5487F09D0A5
:1073800015480088B0F5A07F04D013480088B0F5F8
:10739000807F04D129463046FEF7AEFC07461FB178
:1073A00044F0040400F020F800BF09480079C0F35D
:1073B000C00050B10B480078012806D1044800797C
:1073C000C0F3800008B124F400642046B9E700004F
:1073D000ABBA0020A6BA002082BA0020AABA0020C8
:1073E000A4BA0020A8BA002010B517480079C0F34D
:1073F000800038BB082211464FF4F570FFF710FCEF
:1074000000B31249C9694968487A0121FFF798FE1B
:1074100000BF00231A4619464FF4806000F024FC98
:1074200000BF00BF012300221146980200F01CFC9F
:1074300000BF0649C9694968487A0021FFF780FE04
:10744000FDF79FF810BD0000ABBA00205C142400CB
:1074500010B54FF0FF3400BF00BFC220FFF73CFD66
:1074600000BF002400BFFEF787FA08B900F01AF841
:107470000120094908700948007801280AD1002034
:107480000649087000BF0648006810B1044800684B
:10749000804700BF204610BD3CBA0020F7B900204D
:1074A0001CBA00207047000000B50748007850B9AA
:1074B0000548FCF759FE01200349487000210248A5
:1074C000C1740121C17200BD076F01200279014B17
:1074D0001A7070472EB6002070B54FF0FF341F4869
:1074E0000078022838D0FF201D4908707220FFF76D
:1074F00085FB00F0110011282AD1184800780128D6
:1075000026D100250A20FFF779FB164908800020C4
:10751000FFF774FB054645F00101002000F094FBE5
:107520000120FEF771FBFFF79DFB0F480068FEF797
:10753000BBFD02200949087000BF0C48006810B16B
:107540000A480068804700BF00F012F8002403E0FA
:10755000002002490870841F204670BDF8B9002041
:10756000E0B90020FAB9002030B8002000BA0020AD
:107570007047000070B56FF00504134800780128CB
:1075800003D01148007802281BD1002501200E49A4
:1075900008700020FFF732FB054625F001010020AE
:1075A00000F052FB0020FEF72FFB00BF07480068E9
:1075B00010B106480068804700BF00F009F80024B9
:1075C00000BF204670BD0000F8B9002004BA0020BA
:1075D000704710B53AB933F8114004F47F440443BE
:1075E00023F8114005E033F8114060F31F2423F81D
:1075F000114010BD10B502EB8104185510BD10B537
:107600000246002000BF1EE012F81030012404EBF7
:107610004004145D634002F81030012303EB400383
:10762000D35C12F810406340012404EB400413556E
:1076300012F81030012404EB4004145D634002F89A
:107640001030431C98B201EBD174B0EB640FDBDB5C
:1076500010BD7047704770470120704770477047F2
:1076600010B50A480178012088400949097800EAE4
:10767000010454B105480178012088400449097883
:10768000814303480170FDF7A7FE10BD44BA0020F6
:1076900046BA002010B52022074801682031006852
:1076A000FEF791FD10220448016840310068503017
:1076B000FEF789FD10BD000030B800202DE9F0472D
:1076C00080460C4691461F46002511480078401F11
:1076D000C6B2BE4200DD3E46AA2020701120607076
:1076E00084F80280E670281DC5B236B160193246B2
:1076F0004946FEF768FDA819C5B2321D0021204693
:10770000FCF794FE6055681CC5B22846BDE8F087BA
:1077100011BB00200146142903DA1420064A107018
:1077200007E0F32903DDF320034A107001E002486B
:10773000017001480078704711BB00202DE9F0412D
:1077400006460D464FF0FF370024A046012E01DD0E
:10775000A71E5FE04FF48160FFF750FA04466EBB4E
:1077600004F01000102801D0002D53D024F0100494
:10777000EDB140F22640FFF741FA8046002140F289
:10778000264000F061FA21464FF4816000F05CFA77
:1077900044F420614FF4816000F056FA9620FDF722
:1077A0005BF8414640F2264000F04EFA04E02146E4
:1077B0004FF4816000F048FA00272BE004F010003D
:1077C000102800D135B344F01004EDB14FF48560BA
:1077D000FFF714FA804600214FF4856000F034FA78
:1077E00021464FF4816000F02FFA44F4A0614FF479
:1077F000816000F029FA9620FDF72EF841464FF4FB
:10780000856000F021FA04E021464FF4816000F029
:107810001BFA00273846BDE8F08170B504460D46D6
:10782000B4F5A27F03D0B4F5A37F02D100E00BE052
:107830000AE0A4F5405000EBD071C1F34F06F1B25D
:107840002846FCF7F1FB00BF00BF70BD704770B564
:1078500004460D46A4F58B50172823D2DFE800F02C
:107860000C220D220E220F2210221122122213228C
:10787000142215221622170000BF00BF00BF00BF50
:1078800000BF00BF00BF00BF00BF00BF00BFA4F526
:107890008B5000EBD071C1F34F0631462846FEF7FE
:1078A00009FC00E000BF00BF70BD2DE9F0410746B4
:1078B0000C4690461D4607EB47004FF4435101EB41
:1078C0000020A8EB000086B2B6F5007F03D0A6F238
:1078D000022058B908E02046FCF746FC6570607845
:1078E00008B10120207009E0A57007E0A6F501703D
:1078F000E11C0D542A0A401C0A5400BF00BFBDE819
:10790000F08170B504460E46B4F5405F00DA70BDF4
:10791000A4F540504FF4407190FBF1F505EB4500A4
:10792000000200F54350A04234D8681C00EB400030
:10793000000200F54050A0422CD90D2D28D2DFE8DE
:1079400005F027070C271112131827271D272200DF
:107950003146204600F04AF91BE03146204600F04F
:1079600065F916E000BF14E03146204600F0ACF99E
:107970000FE03146204600F0B9F80AE031462046D3
:1079800000F05EF805E031462046FFF75FFF00E0BB
:1079900000BF00BF00BFBAE72DE9F04304460E4622
:1079A000DDE9077506EB46014FF4435C0CEB012162
:1079B000791AC1F34F000FFA80FC0CEBDC78C4EBB2
:1079C00068084FEAD878B8F1000F05D100EBD078FD
:1079D000C4EB6808984501DBBDE8F083014600EB85
:1079E000D17C4FEA6C0CA0EB4C0CBCF1000F11D019
:1079F00000EBD178C4EB680832F828904FEA0548CC
:107A000069F30F08844600EBDC79C4EB690942F89E
:107A1000298013E0014600EBD178C4EB680852F8E6
:107A200028804FEA28484FEA084865F30F08844643
:107A300000EBDC79C4EB690942F8298000BFCBE791
:107A4000704700002DE9F04104460D460026C4F3BE
:107A50000B04222094FBF0F100FB114050B92220CE
:107A600094FBF0F0154951F82070E9B2384601F066
:107A7000DBFB20E0222094FBF0F100FB1140801E94
:107A800086B2202E16DA222094FBF0F00B4951F832
:107A900020702A0A701CC1B2384601F0BDFB2220BA
:107AA00094FBF0F0054951F82070EAB2F1B2384683
:107AB00001F0B2FB00BF00BFBDE8F0815C14240000
:107AC00070B506460C46154616B1072E0AD104E0DD
:107AD00029462046FFF7A1FE05E02946204600F092
