:020000040021D9
:1020000078700420C1262100C92621002921210041
:1020100049ED210005362100250A220000000000BC
:102020000000000000000000000000003521210039
:10203000D326210000000000C5202100D926210060
:10204000DFF814D001F090F800F030FC00480047B1
:1020500039962300AFF3008078700420EFF30980F5
:1020600070476846704700002C4B19680868B0E854
:10207000F04F80F30988BFF36F8F4FF0000080F3BB
:10208000118870470000000008480068006880F36D
:1020900008884FF0000080F3148862B661B6BFF381
:1020A0004F8FBFF36F8F00DF00BF00BF08ED00E070
:1020B000DFF80C00016841F470010160704700BF57
:1020C00088ED00E0EFF30980BFF36F8F134B1A68C0
:1020D0001EF0100F08BF20ED108A20E9F04F1060AD
:1020E00009B44FF0300080F31188BFF34F8FBFF376
:1020F0006F8F2CF015F94FF0000080F3118809BCA8
:1021000019680868B0E8F04F1EF0100F08BFB0EC77
:10211000108A80F30988BFF36F8F7047C8B500201D
:10212000EFF3058070470000704669461CF014FD0F
:10213000FFF7FEFF004800470160100010B50A4994
:10214000086911F623FD10BD10B50DF6E7FB10BDB3
:1021500010B50549886811F619FD10BD10B5024982
:10216000086811F613FD10BD20FC230070B5002493
:1021700026E01E4850F8240000B920E01B4850F823
:10218000240090F8AE00012818D100BF00BFEFF383
:1021900010800546012015F02EF9144951F824004D
:1021A0001BF64AF8284615F026F900BF10490857D3
:1021B00015F6F0F80E49085715F60AF900BF641C29
:1021C000032CD6D370BD10B5084908681AF668F814
:1021D00010BD10B5054948681AF662F810BD10B573
:1021E000024988681AF65CF810BD000040D1002052
:1021F00090FF2300052010F0B0BD062010F0ADBD0B
:1022000058585247010000002655000000202100C8
:10221000002021007FED944701010000626C655FA2
:102220006170705F74656D70000000000000000058
:10223000000000000000000000000000000000009E
:102240007CB504464FF480615E4800F0E4FA20213A
:1022500084F8401084F88F102078012809D104F107
:1022600050000090621C58A15648636C12F072FE38
:102270001AE0207802280AD1D4E91201CDE9000140
:10228000621C57A14F48636C12F064FE0CE020788A
:10229000032809D1D4E91201CDE90001621C5BA138
:1022A0004848636C12F056FE464800F0DDFA85B2ED
:1022B000294644481DF0F2FD7CBD2DE9F04105465C
:1022C0000E4614461F464FF00008204600F0CCFA98
:1022D000402801D9402002E0204600F0C5FA80469F
:1022E0009021544800F097FA424621465148401C3C
:1022F00000F069FA02204F49087008464764856477
:10230000C664FFF79DFFBDE8F08105460E46144602
:102310001F4672B64FF00008204600F0A5FA40288C
:1023200001D9402002E0204600F09EFA804690212C
:10233000404800F070FA424621463E48401C00F0FA
:1023400042FA03203B490870084647648564C66426
:10235000FFF776FF00BFFEE704460D46164672B64D
:102360000027B846284600F07FFA402801D94020CF
:1023700002E0284600F078FA8046204600F074FA21
:10238000402801D9402002E0204600F06DFA0746BF
:102390009021284800F03FFA424629462548401C33
:1023A00000F011FA3A4621462248503000F00BFA6C
:1023B00001202049087008464664FFF741FF00BF2E
:1023C000FEE70000F4C500202825733A2025642983
:1023D000205B4552524F525D2025730D0A000000CC
:1023E0002825733A20256429205B5741524E494ED7
:1023F000475D20506172616D303A25642C506172E6
:10240000616D313A25640D0A000000002825733AF9
:1024100020256429205B504152414D5D205061725E
:10242000616D303A25642C506172616D313A2564DA
:102430000D0A0000F4C9002010B500241DE004EBD3
:10244000C40000EB4000434911F82000012813D1DB
:1024500004EBC40000EB400001EB800040683E4903
:10246000884209D104EBC40101EB4101394A02EB76
:102470008101081D0EF620FD641C0C2CDFD310BD5D
:1024800010B500241DE004EBC40000EB400031490E
:1024900011F82000012813D104EBC40000EB400028
:1024A00001EB800040682D49884209D104EBC4014A
:1024B00001EB4101274A02EB8101081D0EF6FCFCED
:1024C000641C0C2CDFD310BD10B500243EE004EBDF
:1024D000C40000EB40001F4911F82000012834D14E
:1024E00004EBC40101EB41011A4A02EB8101081D12
:1024F0000EF642FE04EBC40000EB4000154901EB70
:1025000080004068144988420AD1032012F0C5FDBA
:10251000D8B9032014F63EFF032014F659FF14E047
:1025200004EBC40000EB40000A4901EB8000406866
:102530000A49884209D1232012F0AFFD28B923208F
:1025400014F628FF232014F643FF641C0C2CBED382
:1025500010BD000084CA00200090014000A001408E
:1025600010B5002412E0204850F8240000B90CE017
:102570001E4850F8240000B907E01C4A52F8240015
:10258000194A52F82410884700BF641C202CEAD353
:1025900000240DE0164850F8240000B907E0154A61
:1025A00052F82400124A52F82410884700BF641CD5
:1025B000042CEFD310BD70B5032612E000250DE00A
:1025C0000D4850F8254044B1606830B10A484830A1
:1025D000405DB04201D1606880476D1C122DEFD381
:1025E000761E002EEAD170BD841100200412002056
:1025F00094120020A4120020E4D0002070B5002422
:102600002DE02D4850F8240000B927E02A4850F862
:10261000240090F88C0001281FD100BF00BFEFF309
:1026200010800546012014F0ECFE234951F82410D7
:10263000081D23F0DDFA284614F0E3FE00BF1F4911
:1026400001EBC40191F9010014F6A4FE1B4901EB52
:10265000C40191F9010014F6BBFE00BF641C062CF6
:10266000CFD370BD10B514494969081D23F0CEF8C9
:1026700010BD10B510490969081D23F0C7F810BD39
:1026800010B50D49C968081D23F0C0F810BD10B57C
:1026900009498968081D23F0B9F810BD10B506492D
:1026A0004968081D23F0B2F810BD10B50249096849
:1026B000081D23F0ABF810BD4CD10020C8FF23004B
:1026C0000648804706480047FEE7FEE7FEE7FEE7CC
:1026D000FEE7FEE7FEE7FEE7FEE700005D052200FD
:1026E000699623002DE9F05F0546002092469B463F
:1026F00088460646814640241BE028464146474618
:10270000224600F07DFB53465A46C01A914110D331
:1027100011461846224600F047F82D1A67EB0108CB
:102720004F4622460120002100F03EF817EB000939
:102730004E41201EA4F10104DFDC484631462A4602
:102740004346BDE8F09F2DE9F0410024061B2546D5
:1027500071F1000605DA01240027D0EB070067EBD2
:102760000101161E73F1000605DA0027D2EB0702FD
:10277000012567EB0303FFF7B5FF86460E461746B4
:102780009C46AC4204D00025D0EB050E65EB01065B
:1027900024B10020D2EB000760EB030C70463146F9
:1027A0003A466346BDE8F081202A04DB203A00FA6D
:1027B00002F1002070479140C2F1200320FA03F398
:1027C00019439040704710B5441A0346944209D209
:1027D0008418114403E011F8013D04F8013D521E34
:1027E000F9D210BD40EA0104A40703D009E010C9E2
:1027F000121F10C3042AFAD203E011F8014B03F8A8
:10280000014B521EF9D210BDD2B201E000F8012BEB
:10281000491EFBD270470022F6E710B513460A4660
:1028200004461946FFF7F0FF204610BD421E12F87D
:10283000013F002BFBD111F8013B02F8013B002BBB
:10284000F9D1704730B505462A460B4612F8010B00
:1028500013F8014B08B1A042F8D01CB1002802D0F7
:102860006D1CF1E7284630BD421C10F8011B002901
:10287000FBD1801A704710B5002200E0521C835C27
:102880008C5CA34201D1002BF8D1D8B2E1B2401A3E
:1028900010BD30B504460020034600E05B1C9342A7
:1028A00003D2E05CCD5C401BF8D030BD70B5054C68
:1028B000054D03E0206820448047241DAC42F9D137
:1028C00070BD000020FB240024FB24002DE9FE4FF6
:1028D000804681EA0300C00F0C46009021F00041C1
:1028E00023F00045B8EB0200A94105D2404621463D
:1028F00090461C460B46024623F00040104347D04A
:10290000270DC7F30A00C3F30A510290401A019041
:1029100040286BDAC3F3130040F4801B0098924602
:1029200020B10023D2EB030A63EB0B0B019859464D
:10293000C0F140025046FFF737FF06460D465046AD
:102940005946019A00F06CFA10EB0800614100242E
:1029500087EA115284EAE7731A4340D0009A62B3BF
:10296000019A012A4FEA075215DC001B61EB0201B4
:102970004FF0004202EA0752CDE90042001C41F547
:10298000801132462B4600F0C1FA03B0BDE8F08F4B
:1029900040462146F9E7001B61EB0201001C41F5AE
:1029A000801300185B412018A2F5001747EB0301C4
:1029B00040EAD570B6196D4111E06D084FEA360650
:1029C00045EAC0754FEA0752001B61EB0201001C8B
:1029D00041F5801149084FEA300000195141324653
:1029E0002B4603B0BDE8F04F00F081BA00980122F9
:1029F00040000023D0EB020263EBE0730098214615
:102A00004FEAE074B8EB000061EB0401E9E783F002
:102A100000435BE781F0004158E72DE9FE4F81EA72
:102A2000030404F0004421F0004100944FF0000B37
:102A300023F0004350EA01045ED052EA03045BD065
:102A4000C3F30A54C1F30A552C44A4F2F33401949D
:102A5000A0FB0254C1F3130141F48011C3F313032B
:102A600043F4801301FB024400FB034E840A970ADF
:102A700044EA815447EA8357A4FB076802958D0A0C
:102A800005FB07854FEA932C04FB0C542705029D98
:102A90004FEA065847EA1637B5EB08056EEB070C08
:102AA000870E920E47EA811742EA8312A7FB0201C2
:102AB000B6EB0B0164EB00042B0D43EA0C335E18FC
:102AC00044EB1C50DA465146E7FB0201C5F3130400
:102AD0004FEA0B3343EA14534FEA0432019C43EAB2
:102AE0000603A4F10C040294009CCDE900B400F0AC
:102AF0000DFA03B0BDE8F08F00200146F9E72DE99B
:102B0000F04D81EA030404F0004B21F00045144627
:102B10004FF0000A23F0004150EA050220D054EAA9
:102B200001021DD0C5F30A570246C5F31303C1F3D2
:102B30001300C1F30A5640F4801543F48013A7EB49
:102B40000608101BD64608F2FD3873EB050002D3C9
:102B500008F1010801E092185B41B8F1000F03DAB7
:102B600000200146BDE8F08D00204FF4801106469C
:102B700084460EE0171B73EB050705D3121B63EBAE
:102B8000050306434CEA010C49084FEA300092184D
:102B90005B4150EA0107EDD152EA030012D082EA0C
:102BA000040083EA0501084305D0101BAB4106D29F
:102BB0000122002306E000224FF0004302E06FF004
:102BC000010253101AEB06004CEB085110EB0A00FF
:102BD00041EB0B01BDE8F04D00F089B9F0B4CA1724
:102BE000CB0F50405140C61841F100054FEAC37267
:102BF000314628004FF0960303D0B623F0BC00F016
:102C00002AB930460021F9E730B40446962308007B
:102C1000214604D0B62330BC002200F01CB9204667
:102C20000021F8E70EB5C10F80EAE0700844CA073A
:102C3000002140F233438DE80E000A460B4600F0B7
:102C400065F903B000BD0EB540F233410291002199
:102C5000CDE900110A460B4600F058F903B000BD5B
:102C60000EB540F2334202920022CDE90022134613
:102C700000F04CF903B000BD20F00040C20DC0F3DD
:102C8000160040F400007F2A02DA00200146704757
:102C90000021962A03DCC2F19602D0407047963A92
:102CA000FFF782BD70B5C1F30A5201F00045002460
:102CB000C1F3130140F2FF3341F480119A4201DA6B
:102CC000002070BD40F233439A42A2F2334203DC4B
:102CD000524200F095F800E090402C43F1D0404281
:102CE00070BDC1F30A5210B5C1F3130140F2FF33B6
:102CF00041F480119A4201DA002010BD40F23343C2
:102D00009A42A2F2334203DC524200F079F810BD3D
:102D1000904010BD00F0004230F000400AD0C10DDC
:102D200001F56071C0F3160042EA0151C208400784
:102D300011437047002001467047000030B5041E63
:102D400071F1000404DB4FF00044404264EB0101E8
:102D5000141E73F1000405DB1C464FF00043524281
:102D600063EB04038B4208BF824230BD30B5041EC2
:102D700071F1000404DB4FF00044404264EB0101B8
:102D8000141E73F1000405DB1C464FF00043524251
:102D900063EB0403994208BF904230BD01F0004349
:102DA00030B421F0004150EA010206D00A0DA2F52C
:102DB0006072C1F31301002A02DC30BC00207047AE
:102DC000440F44EAC104C100E01830BC00EBC2501B
:102DD00000F038B830B50B4601460020202201240F
:102DE00009E021FA02F59D4205D303FA02F5491BD9
:102DF00004FA02F52844151EA2F10102F1DC30BDEF
:102E0000202A04DB203A21FA02F00021704721FA3F
:102E100002F3D040C2F120029140084319467047A6
:102E2000202A06DBCB17203A41FA02F043EAE0738E
:102E300006E041FA02F3D040C2F12002914008437B
:102E4000194670470029A8BF7047401C490008BFB9
:102E500020F00100704710B4B0FA80FC00FA0CF0CA
:102E600050EA010404BF10BC704749B1CCF1200402
:102E700021FA04F411FA0CF118BF0121214308438F
:102E8000A3EB0C01CB1D4FEA00614FEA102042BFBB
:102E9000002010BC704700EBC35010440029A4BFB1
:102EA00010BC7047401C490008BF20F0010010BC56
:102EB000704710B541000CD0C0F3C751962908DC0B
:102EC0007E2909DC06DB410204D000F0004040F01E
:102ED0007E5010BD002010BDC1F19604C4F1200148
:102EE00000FA01F1E040FFF7ADFFA04010BD10B5C2
:102EF000141E73F1000408DA401C41F1000192181D
:102F00005B411A4301D120F0010010BD2DE9F04DC5
:102F100092469B4611B1B1FA81F202E0B0FA80F21A
:102F200020329046FFF740FC04460F4640EA0A0074
:102F300041EA0B0153465A46084313D0114653EA5F
:102F4000010019D0C8F140025046FFF759FF05466D
:102F50000E46504659464246FFF726FC084305D028
:102F6000012004E020463946BDE8F08D00200543ED
:102F700046EAE0762C4337430A986305E40AA0EB5F
:102F800008000022FD0A44EA47540A3002D5002016
:102F90000146E9E7010510196941DDE90845001915
:102FA0006941BDE8F04DA2E770B521F0004303434D
:102FB0000CD0C1F30A550024D5EB040564EB0403DF
:102FC000D617AD1AB34102DB0020014670BD2018B0
:102FD00041EB025170BD2DE9F04D00231A461B1A3A
:102FE0008A4103DB00200146BDE8F08DC1F30A529F
:102FF000C1F3130141F480154FF0000BD10702D14A
:1030000000186D41521E0027044640F2FF11384659
:1030100001EB620A3E468046024600204FF48011D2
:10302000FFF7EEFEC2197141BB1846EB0100B4EB8D
:10303000030C75EB000C04D3E41A65EB000517468E
:103040000E46241908F101006D4180463428E3DD65
:10305000F91946EB0600091BA84103D24FF0FF32D5
:10306000134601E0002213461BEB070046EB0A5112
:10307000BDE8F04DFFF73BBF2DE9F041054621F0DB
:1030800000400C46284309D0C4F30A5040F23341B3
:10309000884205DD28462146BDE8F0812846FBE749
:1030A00040F2FE31884210DC0CDB4FEA043040EA8B
:1030B000155050EA053105D0104804F00041014395
:1030C0000020E9E700200146E6E7A0F2334046424F
:1030D000C6F1400228462146FFF766FB07468846B0
:1030E000284621463246FFF78BFE43463A46FFF715
:1030F000FEFE3246BDE8F041FFF756BB0000F03F50
:10310000C1F30A52C1F3130140F2FF3341F48011BD
:103110009A4202DA00200146704740F233439A4255
:10312000A2F2334202DC5242FFF76ABEFFF73CBB19
:10313000002801DBC0F10040002901DBC1F10041A2
:10314000814202D24FF0004004E04FF0005001D124
:103150004FF0C0404FEA2062EFF3008162F31F613D
:1031600081F3008870470000064C074D06E0E068D8
:1031700040F0010394E8070098471034AC42F6D3BE
:10318000FEF762FFE0FA240020FB240070B58C18E3
:1031900010F8015B15F0070301D110F8013B2A116B
:1031A00006D110F8012B03E010F8016B01F8016B58
:1031B0005B1EF9D12B0705D40023521E0DD401F854
:1031C000013BFAE710F8013BCB1A921C03E013F81D
:1031D000015B01F8015B521EF9D5A142D8D3002052
:1031E00070BDC1688068B1FBF0F200FB121008B13D
:1031F00000207047012070472DE9F04F9A46934612
:10320000401F099B00EBC00202EB00198F880E8A59
:1032100000200D68CC6818600A89888A30E055F86B
:1032200022C0D3F80080ACEB09014BF82810884687
:1032300006E054F8201055F822C0614502DA401C1F
:10324000B042F6DBB04214DA791E8A4207DA05EBA7
:10325000820C54F82010DCF804C0614509DA54F8F7
:1032600020C0D3F80080ACEB090C401C4AF828C001
:1032700002E019684AF821801968491C521C19603B
:10328000BA42CCDBBDE8F08F05211CF00FBA062155
:103290001CF00CBA2DE9F0411D4616460F4680463B
:1032A000002407E007EB840090ED000AA84728F807
:1032B0001400641CB442F5DBBDE8F0811FB5104971
:1032C0001EC98DE81E00C0F34103C0F356015DF82E
:1032D0002330002221EA03048B43E11803E04B1E54
:1032E0001940521CD2B20029F9D1014662F3000103
:1032F000814202D0012004B010BD0020FBE7000095
:10330000B8D0240010B5044600F006F8A04201D061
:10331000012010BD002010BD1FB50D491EC98DE84C
:103320001E00C0F34103C0F356015DF823300022B4
:1033300021EA03048B43E11803E04B1E1940521CA1
:10334000D2B20029F9D104B062F3000010BD000030
:10335000E8D02400D0F888120022002902DD491E9E
:10336000C0F888121046704710B52DED028BB0EEF4
:10337000608AF0EE408A71EE480A9FED090A12F069
:103380007FFC9FED081AC1EE000A38EEC80ABDECBA
:10339000028BBDE8104020EE200A2AF0D6BE0000C5
:1033A00017B7D13800007F4310B52DED028BB0EE7A
:1033B000608AF0EE408A71EE480A9FED090A12F029
:1033C0005FFC9FED081AC1EE000A38EEC80ABDEC9A
:1033D000028BBDE8104020EE200A2AF0C7BE000094
:1033E00017B7D13800007F432DE9F0472DED028B50
:1033F000D0E90271D0E9008997ED001A8A4670EE93
:10340000410AF5EEC00AF1EE10FA09D110EE101AD9
:103410002B4A914216DCB5EEC00AF1EE10FA11D03B
:10342000FDEEE01A11EE901A002900DA494201EE91
:10343000901A90ED052AF8EEE11AF4EEC21AF1EEB8
:1034400010FA09DB31EE201A87ED001A97ED011A08
:1034500071EE200AC7ED010AB0EE408A002404EBA9
:1034600044000AEBC40607EBC40509EB800108EB36
:103470008000B0EE480A33462A462AF08CFDD5ED8E
:10348000000A641CC5ED010A85ED008AD6ED000A2C
:10349000B0EE408A86EC020A022CE0DB10EE100A45
:1034A000FFF738FC41EC100B13F0FEFC51EC100B55
:1034B000FFF774FCBDEC028B00EE100ABDE8F0874C
:1034C00000007A462DE9F04F0646106891B08B4611
:1034D00007691C469146282102A8FFF79CF90020A5
:1034E0000E900F900C900D90DBF804000F90D9F81F
:1034F00004004FF0010ACDE900A70D9002AD0DF1D7
:103500001C0863782278514628461CF046F8DBF800
:1035100000000C950E9073690CAA0EA930469847CE
:1035200007F57870CDE900A0E378A2780121404644
:103530001CF033F80D980E95CDF830800F90F36A9B
:103540000CAA0EA906F118009847CDE900A76379E7
:103550002279012128461CF020F80D98CDF83880FA
:103560000C950F90736C0CAA0EA906F130009847C9
:1035700014222946D9F80000FFF725F911B0BDE85B
:10358000F08F1AF0DFBB014610B500200839B1F505
:10359000806F03D9012010BD401C00E0012400F120
:1035A0000A0304FA03F28A42F6D310BD70B500266E
:1035B0000124DFED130A491E1BE000EB840595EDA5
:1035C000000A15ED011AB4EEC10AF1EE10FA0EDD93
:1035D00095ED011AB4EEC10AF1EE10FA07DDB4EE72
:1035E000E00AF1EE10FA02DD2646F0EE400A641C15
:1035F000E4B28C42E1D31E60C2ED000A70BD00004F
:103600000000000000BFFEE7D0ED020A90ED011AB5
:1036100070EE600A70EE810A90ED001A60EE810A89
:10362000C0ED010A80ED020AC1ED000A704710B535
:103630001BF01AFA10BD000070B503201749096885
:1036400041F38001491C164D00290CD113490C315E
:103650000968C1F3000131B110498C39096801F0E2
:103660000701884303D02869401C286170BD0D4CB8
:10367000206820F001002060206840F004002060F5
:1036800009494FF4003008601BF068FCE868401CF2
:10369000E860206840F00100206070BDD4A40040C4
:1036A000B8BB002088E2004084E200E02DE9FF5F23
:1036B0009A462DED028BD0E901C2048A0368A7B2B5
:1036C000D31ADDE912B1DDE91059012404EBA3039B
:1036D0009BB29FED6B8B04EB410E4C1C106801F10B
:1036E0000208AE451DD88B42A2EB810501D205EB45
:1036F0008705A3426E68A2EB810401D204EB870424
:1037000043452568A2EB810401D204EB87049E4562
:1037100054F8044CA2EBC10101D901EB87010F68F9
:1037200041E0454518D38B42A2EB810501D205EB60
:103730008705A3426E68A2EB810401D204EB8704E3
:1037400043452568A2EB810101D201EB8701DCF83A
:10375000007051F8044C26E0A54211D38B42A2EB35
:10376000810501D205EB8705A3426E68A2EB8101BA
:1037700001D201EB8701DCF800400D68274612E01A
:103780008D420BD38B42A2EB810101D201EB870169
:10379000DCF800404E6825462F4604E0DCF8005077
:1037A0002C4626463746FFF7B5FA9AED000B53EC48
:1037B000102BFFF732F953EC182BFFF787F841EC89
:1037C000180B3046FFF7A6FA53EC182BFFF77EF8DC
:1037D00041EC180B2846FFF79DFA9AED040B53ECC9
:1037E000102BFFF71AF953EC182BFFF76FF841EC89
:1037F000180B2046FFF78EFA53EC182BFFF766F8EC
:1038000041EC180B3846FFF785FA9AED081B53EC8C
:10381000112BFFF702F953EC182BFFF757F841EC87
:10382000180BABF101004946814500DD00E0084678
:1038300085B2012419E00398A9EB040100EBC10053
:1038400090ED001B049853EC112B00EBC40090ED9D
:10385000000B51EC100BFFF7E0F853EC182BFFF7BF
:10386000D9F841EC180B641CA4B2AC42E3D9B0EE19
:10387000480AF0EE680ABDEC028BBDE8FF9F00002D
:10388000000000000000000010B50020064908708C
:103890000649087006490870064908703221064832
:1038A000FEF7B9FF10BD00002DB600202EB6002097
:1038B0002FB6002030B6002046FF00202DE9F04F43
:1038C0004668D1F8049007884C88B0F80280DFED94
:1038D000161AD2F804B08A464FF0000CDAF8040049
:1038E0000BEB8C052346B0EE610A3146424608E0F8
:1038F000F1EC010A90ED001A00EB8400521E00EE7C
:10390000810A002AF4D15B1EA4EB0301A5EC010A95
:1039100009EB8100E7D1A44406EB88067F1EDDD1C8
:103920000020BDE8F08F00000000000030B50D461B
:1039300004460CF0E3FFDFED0B0A002208E004EB85
:103940008200521C90ED001A31EE401A41EE010A3D
:10395000AA42F4D36D1E00EE105AB8EE401A80EE63
:10396000810A30BD0000000070B50E4605460024F7
:1039700007E004EB041100EB8100001D1CF088FC43
:10398000641C2868A0423068F3D8BDE8704006F097
:103990003BB800001FB50D491EC98DE81E00C0F3DD
:1039A0004103C0F356015DF82330002221EA0304ED
:1039B0008B43E11803E04B1E1940521CD2B2002980
:1039C000F9D104B062F3000010BD0000D8D024008B
:1039D00010B50446FFF7DEFFA04201D0012010BD64
:1039E000002010BD10B504460068FFF7D3FF20602B
:1039F00010BD000010B518A100200CF083FB21A120
:103A000000200CF07FFB14A100200CF07BFB24486D
:103A100017F0A2F8234817F0A5F823A100200CF016
:103A200071FB17F051F828A100200CF06BFB4FF44C
:103A300096722CA100200CF065FB4FF49670FBF5FC
:103A4000DFFD32A100200CF05DFB17F091F837A1EB
:103A500000200CF057FB10BD3D3D3D3D3D3D3D3D43
:103A60003D3D3D3D3D3D3D3D3D3D3D3D3D3D3D3D86
:103A70003D3D3D3D3D3D3D3D3D3D3D3D3D3D3D3D76
:103A80000D0A000047483332323020454347204278
:103A90006172656D6574616C2044656D6F0D0A001F
:103AA00065F42200E9F42200496E697469616C6969
:103AB0007A696E6720454347206D6F64756C652E8B
:103AC0002E2E0D0A00000000454347206D6F6475DF
:103AD0006C6520696E697469616C697A65640D0A48
:103AE0000000000057616974696E67202564206DCD
:103AF00073206265666F7265207374617274696E9B
:103B000067204543472E2E2E0D0A00005374617224
:103B100074696E6720454347206D656173757265F2
:103B20006D656E742E2E2E0D0A0000004543472051
:103B30006D6561737572656D656E74207374617205
:103B40007465640D0A0000002DE9F0412DED048B31
:103B500008689FED238ADFED238A076910680669EC
:103B6000856800200BE007EB800191ED000AB4EEC0
:103B7000C80AF1EE10FA01DDB0EE408A401CA842FE
:103B8000F1DB0024DFF860809FED189A14E007EB6A
:103B9000840090ED000A30EE480A10EE100A40450D
:103BA00001DBB0EE490A11F0B3FE06EB840070EEC3
:103BB000288A80ED000A641CAC42E8DB002008E0A3
:103BC00006EB8001401C91ED000AC0EE280AC1ED11
:103BD000000AA842F4DBBDEC048B0020BDE8F081B4
:103BE000FFFF7FFF000000000000B0420000B04275
:103BF0002DE9F04306462DED028B8DB0106814467A
:103C0000401C106096ED140A4FF00009B8EEC00A8F
:103C10008DED080A96ED150AB8EEC00A8DED090A79
:103C200096ED160AB8EEC00A8DED0A0A9FED5C0A01
:103C3000F0EE081A8DED070ADDED080A20EEA01A55
:103C4000DDED090A00EEA01ADDED0A0A00EEA01A69
:103C5000C1EE210AF5EEC00AF1EE10FA03DBB1EE77
:103C6000E01A8DED071A8DED020A8DED030A8DED38
:103C7000040A8DED050A8DED060A9FED4A8A00259E
:103C80008DED0B0A4FF09048012756F8250000EE05
:103C9000100AB8EEC00A10EE100A8DED0B0A40456E
:103CA00001DD9FED418A009704EB0510BDEEC80AC7
:103CB000012302AA8DED010A0BA9001D1CF060FE74
:103CC0009DED020AFEF799FA01B204EBC5008430BB
:103CD0001CF0BFFC6D1C042DD7DBBDEEC88A00258F
:103CE00000958DED018A012303AA08A904F144007F
:103CF0001CF046FE00958DED018A012304AA09A956
:103D000004F154001CF03CFE00958DED018A012366
:103D100005AA0AA904F164001CF032FE00958DED9D
:103D2000018A012306AA07A904F174001CF028FEE9
:103D300020680321B0FBF1F201FB1200012828D119
:103D40009DED030AFEF759FA0FFA80F89DED040A7B
:103D5000FEF753FA07B29DED050AFEF74EFA06B2DA
:103D60009DED060AFEF749FA05B2414604F1A400AA
:103D70001CF06FFC394604F1AC001CF06AFC3146C3
:103D800004F1B4001CF065FC294604F1BC001CF0F1
:103D900060FC0DB04846BDEC028BBDE8F08300002E
:103DA0000000000000000045000080482DE9F04FB1
:103DB000144605462DED088B02EBD470461083B0F7
:103DC00070100190A14208DAA4EB01004FEA8002D2
:103DD00005EB81001146FEF71EFDB4F5807F0BD187
:103DE000DFF80891B1B202234A4628460FF023F8C3
:103DF000072128460EF0F4F895EC020A06EBD6707F
:103E00000024009030EE600AB0EEC0BA4CE0301BE7
:103E100005EBC40805EBC00798ED00AA97ED009AE2
:103E2000D8ED019AD7ED018A3AEE091A09EB840B15
:103E300039EEA88ADBED001A0198F0EE41AA79EE7E
:103E4000E80A39EE4A0A08EE211A011B09EB810A39
:103E500040EE210A9AED002A00EE021A48EE420ACC
:103E600021EE010A00EEA00A13F018F988ED000A0D
:103E7000DBED001AB0EE6A1A78EEE90A3AEE490A6A
:103E800008EE611A9AED002A40EE610A00EE021A6D
:103E900048EE420A21EE010A00EEA00A13F0FEF8F5
:103EA00087ED000A0098641CB4EB600FAFDD0120C1
:103EB000B6EE000A0AE005EBC001D1ED000A05EB01
:103EC0008001401C60EE800AC1ED000AB042F2DBC6
:103ED00005EB86009FED060A85ED000A80ED00BA2D
:103EE00003B0BDEC088BBDE8F08F00002CF024007F
:103EF000000000002DE9F0410D46064600240BE0CD
:103F000004EB440005EBC00007461CF099F907F1EB
:103F10000C001CF095F9641C3068A042F0D8BDE894
:103F2000F08103468B4203D3934201D81846704771
:103F3000934203D38B4201D81846F8E7994203D342
:103F4000914201D80846F2E7914203D3994201D841
:103F50000846ECE71046EAE710B502F0D5FD01F09F
:103F60002FFA00F01FF802F09DFF00F031FF10BDA6
:103F700070B504460D46207890B16068012806D1DE
:103F8000202000F0FFFA102002F0ECFF08E060684B
:103F9000022805D1102000F0F5FA202002F0E2FFFF
:103FA00070BD000010B504220021024802F005F99E
:103FB00010BD000049B90020F8B507460D460024A1
:103FC00011E0E00047FA00F0C0B2009004EB4500B9
:103FD000C6B2042E05D2054988190122694602F0AD
:103FE000CCF8601CC4B2022CEBDBF8BD49B9002050
:103FF0002DE9F04106463148006810B90020BDE8BF
:10400000F0814FF0FF37002554E00120A8403040F8
:104010000121A94088424AD1284800683040B04276
:1040200046D12748006850F8254005F0EBF828B144
:10403000A06A806840F00800A16A88602148405D5D
:10404000A0B305EB4500204901EB8000406868B350
:1040500005EB45000A4602EB800041682046884790
:104060000746A06B0068C0B9E06B0078A8B944228D
:104070000021E06B02F0A1F844220021206C02F044
:104080009CF80120E16B0870FF20E16B4880E16B38
:10409000488805F0DAFAE16B4870E06B0078012897
:1040A00004D14422D4E90F1002F067F800E00027A1
:1040B000681CC5B2142DA8DB78B2A0E7E4B90020D3
:1040C000E0B9002000610120DC11240070B5044635
:1040D0000D460CB1064804604BF2D82000F0B0F851
:1040E000042D04DA034901EBC50001F0F7FF70BDB0
:1040F000E0B90020C013240000210170417000BF0E
:1041000003E0FF23C21C5354491C2029F9D37047F4
:104110002DE9F041064600251D48006810B9002031
:10412000BDE8F0811B480068B0431A4908600024CC
:1041300029E00120A04030400121A140884220D147
:104140001348006850F824701348005D98B104EBE0
:104150004400124901EB8000806860B104EB440028
:104160000A4602EB8000816838468847054615B943
:1041700000200949085500BF0DB168B2D0E700BF63
:1041800000BF601CC4B2142CD3DB68B2C8E70000C7
:10419000E0B90020E4B9002000610120DC11240016
:1041A0002DE9F041064600252148006810B900209D
:1041B000BDE8F0811F48006830431E49086001F0E7
:1041C000BBF9012802D04FF0FF30F1E700242BE0CB
:1041D0000120A04030400121A140884222D1144852
:1041E000006850F824701448005D012814D004EBD6
:1041F0004400124951F8200058B104EB44000A462B
:1042000052F8201038468847C5B215B901200A492E
:104210000855304607F09CFA00BF0DB168B2C7E7F9
:1042200000BF00BF601CC4B2142CD1DB68B2BFE772
:10423000E0B90020E4B9002000610120DC11240075
:1042400070B5044600254CB1681EFFF761FF0548B4
:10425000046000BF00F008F8054601E06FF00405B7
:10426000284670BDC8BA002010B500241048007858
:10427000D8B91048006806F0C1FB0F49086008462D
:10428000006880B10B48006868B10A4801680A48B4
:10429000006820F0F5F808B1641F06E00120044929
:1042A0000870002401E06FF00404204610BD0000F7
:1042B000C4BA0020C8BA0020C0BA0020034B18704E
:1042C000034B1970034B1A7070470000A8BA002006
:1042D000A9BA0020AABA00202DE9FE4305460C46E3
:1042E0000CB9BDE8FE83284A07CA8DE80700062DF1
:1042F0002FD005DC5DB1012D18D0022D36D119E08B
:10430000072D2AD0092D2CD00F2D2FD12AE003F014
:1043100021FE8046FEF7A8FA461C03F01BFE074666
:1043200032463946204601F028FF29E020461FF09A
:10433000D7FA25E020F09EF88046FEF795FA461C55
:1043400020F098F8074632463946204601F015FF1E
:1043500016E0204620F070FB12E020461EF052FED0
:104360000EE000BF204605F0A9FD09E06846FEF713
:104370007BFA461C32466946204601F0FEFE00BF2D
:1043800000BF00BFADE70000CC122400F8B50E4618
:10439000074600240FE03D196878A978000440EA38
:1043A0000120E978084300906846FFF71BFB00985E
:1043B000241DE870A4B2B442EDD3F8BD70B5034635
:1043C0000C46FF200021214607E0CEB29E5D46400C
:1043D000F5B2034E705D4E1CB1B29142F5DB70BD7B
:1043E000DC1024002DE9F04F87B081468B46002475
:1043F000A2460020059000BF00BF04904FF4E46087
:1044000002F0D6FB4FFA80FA3F48007800F08000B7
:10441000802873D15946484600F098F818B104989E
:1044200007B0BDE8F08F002460E019F8040000F048
:10443000F8003649C9690969097801F0F80188422C
:1044400052D119F804004FF07F4101EA0060611C6D
:1044500019F801104FF47F0202EA01410843A11C40
:1044600019F80110121202EA01210843E11C19F89F
:10447000011008430590059820F07F474FF0000891
:104480004FEAEA704FF480611AEB010140F100003D
:10449000CDE902104FF400017A1A68F100004B13C5
:1044A0000021A2FB03CE00FB03E002FB0100CDE9EB
:1044B00000C0604601A90EC9FEF745F94FF400039C
:1044C000C51841F10006280C40EA0640C1B2601C44
:1044D00009F80010280A40EA0660C1B2A01C09F8D9
:1044E0000010E01C09F80050201D84B25C459CDBE4
:1044F00059464846FFF74AFF03E0FFE74FF0FF3019
:10450000049004988CE7000070B80020C4052400D3
:104510007047704770B5002540F2247002F048FBE8
:104520000546C5F3421001280FD100240BE0C4EB6F
:10453000C401890001F5857000230522042103F0E0
:104540006DFB601CC4B2082CF1DB70BD70B50D466C
:10455000064600240BE0321950789178000440EAB6
:104560000120D1780843FFF733FA241DA4B2AC42EE
:10457000F1D3002070BD0000002001490870704791
:10458000DFB80020024909688143014A1160704781
:1045900088B800202DE9F0410326F71F00BF362020
:1045A00002F006FB4AF6552188421BD14FF4F67003
:1045B00002F0FEFA0446E04385B229464FF4F67055
:1045C00003F01CFB4FF4F67002F0F2FA0446A54229
:1045D00008D10027E04385B229464FF4F67003F076
:1045E0000DFB03E0701EC6B2002ED8DC00BF3846BB
:1045F000BDE8F0812DE9FC5F0446894692465E489D
:10460000046000681421A0FB01134FF40002002095
:10461000A1FB027B03FB02B201FB00214FF4E1622C
:1046200003463846FEF78FF805464FF47A720023AA
:10463000FEF789F830230025A0FB032601FB036168
:1046400000FB05154FF47A73002110462A46A0FBA3
:10465000035602FB036200FB012040F6F2720B4698
:10466000CDE9005028460199FEF76DF8434A03C290
:104670004248D0E90010A1FB012300FB013301FBFC
:1046800000303F49C1E900203C4903C9A0FB005369
:1046900001FB003301FB0031142200232846FEF702
:1046A00052F8074614220023FEF74DF8354A03C29C
:1046B0003548C0F8009000681421A0FB01314FF488
:1046C00000020020A3FB025B01FB02B103FB00110F
:1046D0004FF4E16203462846FEF735F807464FF4EB
:1046E0007A720023FEF72FF8302500220346A3FB41
:1046F000050601FB056103FB02134FF47A720021EA
:10470000A0FB025603FB026200FB012040F6F2729E
:104710000B46CDE9005028460199FEF714F81B4AD4
:1047200003C21A48D0E90010A1FB012300FB0133AA
:1047300001FB00301649C1E90020144903C9A0FB60
:10474000005301FB003301FB0031142200232846F3
:10475000FDF7F9FF074614220023FDF7F4FF0D4A89
:1047600003C20D48C0F800A000680C4948430C493A
:104770000860BDE8FC9F000050B9002058B9002037
:1047800060B9002068B9002070B9002078B9002015
:1047900080B9002088B9002094B90020166C01006F
:1047A00098B900202DE9F04104460D4617464FF018
:1047B00000080020206094B18DB187B100260BE085
:1047C00005EB8602518835F8260007F05BFB21686F
:1047D00008432060701C86B2BE42F1DB01E06FF03E
:1047E00001084046BDE8F08138B504460D48006830
:1047F00020B120460B490968884711E00DE00020F0
:10480000009004E09DF80000401CC0B200909DF8AC
:1048100000000928F6D3601E84B2002CEFDC00BF34
:1048200038BD0000E4B800202DE9FF4F89B00646EE
:1048300017461C46169D4FF0000800200890079070
:10484000069081460A98305C4FF07F4101EA006192
:104850000A98401C305C4FF47F0202EA0040084393
:104860000A99891C715C121202EA012108430A9913
:10487000C91C715C40EA01084FEAD860079028F033
:104880007F40A0F500000890FE48007888B9C8F382
:104890008060069094F8A4110698814205D0FA49E8
:1048A000C9694968088800F0C3FA069884F8A40129
:1048B00024E0F4480078012820D1C8F380600690F5
:1048C00094F8A401012816D0EF4840684068008899
:1048D00030B1ED4949684968088802F0D1F80AE02A
:1048E000E94880694068008828B1E74989694968D2
:1048F000088802F0C5F8012084F8A401E348007C90
:10490000042803D0E148007C05287DD1687900287F
:104910007BD0D4F89801002815DDD4F89401401E0E
:10492000C4F89401D4F89401002802DA2879401ED2
:1049300001E0D4F89401C4F894010898D4F89411D3
:1049400044F8210011E0002004E0089944F8201008
:10495000411CC8B229786A7891FBF2F1491C814266
:10496000F3DC2879401EC4F89401D4F89401049033
:104970000021029103918A464FF0010917E0049843
:1049800054F82000E96851F8291080FB0132DDE974
:10499000020118184A41CDE9020229790498401C05
:1049A00090FBF1F201FB1200049009F10109E87893
:1049B0004845E4D81AE0049854F820002A78A2EB7D
:1049C0000902E96851F8221080FB0132DDE9020199
:1049D00018184A41CDE9020229790498401C90FB3D
:1049E000F1F201FB1200049009F101092878401C42
:1049F0004845E0D8DDE90210820042EA917A0AF5E2
:104A0000000ABAF1000F01E0AFE0ADE002DA4FF0CA
:104A1000000A04E0BAF1807F01DB6FF07F4A94F86E
:104A2000B00100286CDD9948007C042827D1D4F817
:104A3000AC01642819D804F5D4746068C0F164002E
:104A40002168484361680AFB01006421B0FBF1F072
:104A50000590C4F800A06068A968084464386060E4
:104A600001206072A4F5D47409E0C4F8A8A1D4F8B8
:104A7000AC016438C4F8AC01002084F8B10183486B
:104A8000007C05284BD1D4F8AC01B0F57A7F2BD847
:104A900004F5D4746068C0F57A702168A0FB011237
:104AA00000234FEAEA7C6068A0FB0ABE03FB0AE32E
:104AB00000FB0C3011EB0B014241CDE900124FF429
:104AC0007A72002308460199FDF73DFE0590C4F86F
:104AD00000A06068A9680844A0F57A7060600120B1
:104AE0006072A4F5D4741AE0C4F8A8A1D4F8AC019B
:104AF000A0F57A70C4F8AC01002084F8B1010EE092
:104B0000CDF814A0C4F8A8A1D4F8AC01A968084451
:104B1000C4F8AC01012084F8B00184F8B10194F824
:104B2000B10101281FD105210598B0FBF1F10798CB
:104B3000C206069802EB806001EB00084FEA18609D
:104B400039887054C8F307413888401C3154C8F381
:104B500007213888801C31543888C01C06F8008032
:104B60003888001D388000BF00BF4848007C0128FD
:104B700007D04648007C022803D04448007C032824
:104B80007ED1687900287BD0D4F898C1BCF1000FA1
:104B900021DDD4F894C1ACF1010CC4F894C1D4F86F
:104BA00094C1BCF1000F04DA95F804C0ACF1010C1B
:104BB00001E0D4F894C1C4F894C1DDF820C0D4F861
:104BC00094A144F82AC095F801A0D4F89CC1D4441B
:104BD000C4F89CC122E04FF0000C07E0DDF820A0F3
:104BE00044F82CA00CF1010A0AF0FF0C95F800A083
:104BF00095F801B09AFBFBFA0AF1010AE245EDDCF7
:104C00004FF0000CC4F89CC14FF0010CC4F898C1DF
:104C100095F804C0ACF1010CC4F894C1D4F8A0C15B
:104C2000D4F89CA1D4456FD395F801A0D4F89CC1C9
:104C3000D444D4F8A0A1D44566D9D4F8A0C1D4F8FE
:104C40009CA1ACEB0A0CCDF814C0D4F8942100233D
:104C500000200146DDF814901FE054F822C0D5F87A
:104C60000CA05AF829A08CFB0AAC1AEB00004CEB04
:104C7000010195F804A002F1010C9CFBFAFB07E08E
:104C800075E000003DB90020C4052400DC5C012073
:104C90000AFB1BC295F801C0E14495F803C0CC455E
:104CA000DBD81AE054F822C095F800B0ABEB090B42
:104CB000D5F80CA05AF82BA08CFB0AAC1AEB00001C
:104CC0004CEB010195F804A002F1010C9CFBFAFBEE
:104CD0000AFB1BC295F801C0E14495F800C00CF135
:104CE000010CCC45DED895F802A0D4F8A0C1D4447C
:104CF000C4F8A0C14FEA907C4CEA810303F500039D
:104D0000002B02DA002305E030E0B3F1807F01DB05
:104D10006FF07F43DDF81CC04FEACC6ADDF818C0A5
:104D20000AEB8C6C0CEB03084FEA186CB7F800A088
:104D300006F80AC0C8F3074AB7F800C00CF1010C26
:104D400006F80CA0C8F3072AB7F800C00CF1020C53
:104D500006F80CA0B7F800C00CF1030C06F80C80A4
:104D6000B7F800C00CF1040CA7F800C000BF0DB0EC
:104D7000BDE8F08F13490988B1F5807F16D0B1F5F1
:104D8000A07F0DD0B1F5487F16D1B0F5FA7F03D1E1
:104D900001210D4A117402E002210B4A11740CE04A
:104DA000FA2802D10421084A117406E0FA2802D137
:104DB0000521054A117400E000BF00BF0321034A2A
:104DC000117470471AB90020DC5C0120F05C0120EE
:104DD00001200B49087000200A4908600A49086050
:104DE0000A4908600A4908700A4908700A490870A7
:104DF00003200A4908700020094908707047000024
:104E000084B8002088B8002080B8002070B8002046
:104E100090B8002085B80020D4B80020DEB800206B
:104E2000DFB800200149088070470000D8B8002092
:104E300010B5044600200AF077FD2046FFF79AFFE0
:104E4000B4F5FA7F0FD13548007C01283FD13448B2
:104E50003249C860B6200870052048700820887064
:104E60000120487133E0FA2C2DD12C48007C022817
:104E70000AD12C482949C860FA20087005204870DA
:104E800010208870012048712448007C04280AD131
:104E900025482249C8603220087001204870887077
:104EA0004871802088601D48007C05280FD11F486C
:104EB0001A49C860642008700120487088704871E1
:104EC0008002886003E000201449487110BD134936
:104ED000087800EBD0714910A0EB410149B10F49AE
:104EE0000978481C00EBD071C1F347010B4AD1701F
:104EF00008E00A490978881C00EBD071C1F347012A
:104F0000064AD170054800780449497890FBF1F0D1
:104F1000401C0249087100BFD8E70000DC5C01209A
:104F2000400B2400B00C2400A80F24001010240013
:104F300070B504460D46A08800B22049204A127878
:104F400021F8120008461E49097830F911001D4960
:104F5000096808441B49086019480078401C184932
:104F60000870A06810B1207A1AF0F2FA144800789C
:104F7000042822D113490868C11700EB91718910E8
:104F800009B2114A114B1B7822F8131000200D4969
:104F900008600B4908700D480078401C0B490870E8
:104FA00008460078192808DB002008701CF082FFF2
:104FB00018B11921044815F0E9FB70BDAEBA002004
:104FC000BCBA0020B8BA002046FF002030B600204E
:104FD0002DE9FC4704460F4690460025002001902D
:104FE000814600BF73E0605D00F0F8003C49C9698C
:104FF000096911F8081001F0F801884214D16D20F8
:1050000008FB00F03749096801EB800600203649AB
:1050100008703648334601AA294600902046FFF71B
:1050200003FC4FF0010900BF3148006850B331481C
:105030004079012826D1002620E0605D00F0F800CC
:10504000274949680969895D01F0F801884213D14F
:105050006D2070432849096801EB800A012022492C
:1050600008702448534601AA294600902046FFF7BD
:10507000DBFB4FF0020900BF701CC6B21C48006881
:105080008642DAD3B9F1000F1DD118484079D0B16A
:10509000605DBDF804106054681C215CBDF804001C
:1050A000401C2154A81C215CBDF80400801C215424
:1050B000E81C215CBDF80400C01C2154BDF80400AC
:1050C000001D80B201904FF00009281D85B238887C
:1050D000A84288DCBDF804003880BDE8FC870000E9
:1050E000C40524001C0624003DB90020DC5C01201E
:1050F00020062400F05C01202406240070B505463B
:105100000C460848407901280AD100222146284649
:10511000FFF75EFF21882846FFF738F9012070BDB0
:105120000020FCE7DC5C012070B504460D466048B9
:10513000007800B970BD012C0ED135B95D480078FA
:1051400020F001005B4908702CE05A48007840F0DC
:1051500001005849087025E0022C13D15648C06957
:105160004068407A284030B15248007840F0020050
:105170005049087016E04F48007820F002004D4971
:1051800008700FE0042C0DD135B94A48007820F0A2
:1051900004004849087005E04648007840F00400E3
:1051A000444908704548007900F0030028B143489D
:1051B000007900F00300022801D1032600E0072651
:1051C0003C4800783040B0422CD13D48007800285F
:1051D0006CD13A48007800F0010050B100BF0123C3
:1051E0000A2211464FF4F57002F018FD00BFFFF7D8
:1051F0008FF932480079C0F3800060B10120314955
:10520000087000BF00231A461946800202F006FD0E
:1052100000BFFFF77EF900202B49087001202849C4
:10522000087043E026480078012839D123480079E6
:10523000C0F38000B8B11F48007800F0010048B109
:1052400000BF012300221146980202F0E7FC00BFD4
:10525000FFF75FF919480079C0F3C000E8B10220F8
:1052600001F080FE19E0002211464FF4806001F049
:10527000B1FC90B100BF00231A4619464FF480607C
:1052800002F0CCFC00BF00BF0123002211469802AF
:1052900002F0C4FC00BFFFF73CF900200949087088
:1052A00000200749087001200749087000BF41E746
:1052B0003EB900203FB90020C405240043B90020B6
:1052C00040B9002041B9002042B9002010B54FF08C
:1052D000FF3400BF00BF1D481D490978405CE8B994
:1052E0001C480078012802D01A480078B0B98820FC
:1052F00001F05EFC1849164A127821F8120008469F
:10530000134A127830F8120040F00301882002F0AE
:1053100075FC01200D490E4A1278885400BF00BF69
:10532000C42001F0B3FD00BF00BF3220FFF75CFADC
:1053300000BF002400BF06480178012088400749CB
:105340000978084305490870204610BDD0B80020F0
:10535000DCB8002090B80020CCB80020DEB80020D7
:1053600010B54FF0FF3400BF00BFC32001F08EFD29
:1053700000BF00BF4FF4FA70FFF736FA00BF00BF5E
:105380000C480D490978405C01280ED10B480A4AA7
:10539000127830F81210882002F030FC00BF00BFF5
:1053A00000210448044A1278815400BF002400BF41
:1053B000204610BDD0B80020DCB80020CCB80020BA
:1053C000FF2005490870002004490870044908605E
:1053D000044908807047000078B8002079B80020A0
:1053E0007CB8002092B8002070B505462C46032CEE
:1053F00001DA032404E0B4F5487F01DD4FF448747A
:1054000021460A2002F0FAFB01480480002070BD0A
:1054100092B8002070B5054600260DB9304670BD23
:1054200002F016FD2C68284602F0A4FD2C48006806
:1054300040B902F02BF8064600BFB01D08B930464F
:10544000EDE700BF802C0BD101210846FFF76CFE71
:1054500000F056FC2349C96949680888FFF7E8FC51
:105460002148006820B3022C06D11E4949684968CA
:10547000088801F005FB1BE0402C06D11949896919
:105480004968088801F0FCFA12E0B4F5007F06D103
:105490001449496A4968088801F0F2FA08E0B4F54D
:1054A000004F05D10F49C96B4968088801F0E8FA37
:1054B000012C02D1012000F09FFB09480068204325
:1054C000074908600020296B0860A96B08606968BB
:1054D0000A7AFF21686B00F070FE30469FE70000FB
:1054E00070B80020C40524002006240070B50446CE
:1054F00000250CB9284670BD2668204602F03AFD0A
:105500000C480068B0430B490860206C20B10020B3
:10551000216C0870216C48800648006838B902F098
:1055200003F8054600BF0DB12846E4E700BF284652
:10553000E1E7000070B800200148007870470000E3
:10554000C4BA00200020704701480068704700007E
:1055500080B80020014800887047000092B8002001
:105560002DE9FF4F054689460D9E002000230027A8
:10557000002193E055F821B056F821E0F34506D319
:1055800055F821B056F821E0ABEB0E0805E056F8CF
:1055900021B055F821E0ABEB0E08082421E0B8F16A
:1055A000000F01D100271EE04FEA840B28FA0BFB05
:1055B0000BF00F0ABAF1000F0FD055F821B056F8D2
:1055C00021E0F34502D84FF0010B01E04FF0000B52
:1055D0000BEB440B0BF0FF0705E0A4F1010B4FFAB6
:1055E0008BF4002CDBDA00BF9B4603EBDB7E4FEA3B
:1055F0006E0EA3EB4E0EBEF1000F06D012F800B0F7
:105600004BEA070B02F800B00BE000F1010B0BF0C6
:10561000FF0012F800B04FEA077E4BEA1E6B02F85B
:1056200000B003F1010B0BF0FF03BB4607EBDB7E81
:105630004FEA6E0E4FFA8EF42AE04FEA840B28FAF6
:105640000BFB0BF00F0C9B4603EBDB7E4FEA6E0E61
:10565000A3EB4E0EBEF1000F06D012F800B04BEADD
:105660000C0B02F800B00BE000F1010B0BF0FF0097
:1056700012F800B04FEA0C7E4BEA1E6B02F800B045
:1056800003F1010B0BF0FF03A4F1010B4FFA8BF4B4
:10569000002CD2DA01F1010B0BF0FF014945FFF6B6
:1056A00069AF03F1010B0BEBDB7E4FEA6E0E0EF1DF
:1056B000010E0EF0FF00107000F1010B0BF0FF0E59
:1056C000DDF80CB08BF800E0BDE8FF8F00A070475C
:1056D0004748284D29335832585F44454D4F5F762F
:1056E000312E365F41435F76302E35286275696C06
:1056F000643A4A616E20313620323032365F3030C3
:105700003A33383A3538290000A070474748284DC9
:1057100029335832585F44454D4F5F76312E365FFE
:1057200041435F76302E35286275696C643A4A6170
:105730006E20313620323032365F30303A33383AEC
:10574000353829000020704700A070474748284D91
:1057500029335832585F44454D4F5F76312E365FBE
:1057600041435F76302E35286275696C643A4A6130
:105770006E20313620323032365F30303A33383AAC
:105780003538290001480078704700008CB80020A7
:1057900010B500244FF4A16001F00AFA0446214636
:1057A0004FF4A16002F02AFAC4F30E0010BD2DE9F7
:1057B000FF4FC3B080469146DDF848A10024002683
:1057C000A346FF220021684600F0F7FC44980178C8
:1057D00051980078814211D0601CC4B20DF80400C9
:1057E000611C0DEB01004A46449900F0C6FC04EB35
:1057F0000900C4B206EB4900C6B204E0601CC4B2A2
:1058000000200DF8040000257AE058F825005AF829
:105810002510884206D358F825005AF82510401A5A
:10582000419005E05AF8250058F82510401A41909B
:1058300008271CE0419810B94FF0000B19E0B9009F
:105840004198C84000F00F004090409868B158F867
:1058500025005AF82510884201D8012000E00020D8
:1058600000EB470000F0FF0B03E0781E47B2002F6B
:10587000E0DA00BF304606EBD0714910A6EB4101DB
:1058800031B11DF8040040EA0B000DF8040009E0F6
:10589000601CC4B21DF804004FEA0B7140EA1160AD
:1058A0000DF80400701CC6B258460BEBD0714910BD
:1058B0004FB221E0B9004198C84000F00F0042907B
:1058C000304606EBD0714910A6EB410131B11DF80D
:1058D0000400429908430DF8040009E0601CC4B2BA
:1058E0001DF804004299090740EA11600DF8040010
:1058F000701CC6B2781E47B2002FDBDA681CC5B236
:105900004D4582DB701C00EBD0714910491CCCB2B4
:105910008DF80040601CC1B250980170621C69464D
:10592000469800F02AFC47B0BDE8F08F01480078A7
:105930007047000085B800200148006870470000EB
:1059400088B800200020704700B50948007870B979
:105950000748FEF7D1FB042005494870002004E009
:105960000349C91C0854411CC8B20428F8DB00BD17
:10597000146101200279014B1A7070472DB6002086
:1059800070B504460D46207E211D15F031FA70BD1C
:105990007CB504460D4600200190AA208DF8040035
:1059A0008DF805000549064A00951278885C234663
:1059B000022201A9034E3668B0477CBDE0B8002042
:1059C000DCB80020F8B800203EB504460020029064
:1059D0000190200A8DF80800E0B28DF8090002203D
:1059E0000A490B4A00901278885C01AB022202A996
:1059F000084D2D68A8479DF804004FF47F4101EA47
:105A000000209DF8051008433EBD0000E0B80020CE
:105A1000DCB80020F8B800202DE9FC4105460E4610
:105A2000144600200190280A8DF80400E8B28DF891
:105A300005004FF6FF7000EA44000A490A4A009048
:105A40001278885C3346022201A9084F3F68B847A4
:105A50004FF6FF7000EA4401304601F0AAFDBDE8B0
:105A6000FC810000E0B80020DCB80020F8B800207D
:105A700038B5044600200090DD208DF800008DF838
:105A800001008DF802400549054A1278885C03221E
:105A90006946044B1B68984738BD0000E0B80020F9
:105AA000DCB80020F4B8002038B504460D460020CC
:105AB0000090200A8DF80000E0B28DF80100280A5D
:105AC0008DF80200E8B28DF803000549054A127806
:105AD000885C04226946044B1B68984738BD000067
:105AE000E0B80020DCB80020F4B8002070B504460F
:105AF000FEF732FAFEF74EFD10B16FF0030070BDF5
:105B000047F6FF714FF4A16002F078F86CB1A188FC
:105B10000022206800F0F7FA10B16FF00300EEE702
:105B2000FFF704FF08B900F027FB20214FF4E060E5
:105B300002F064F830214FF4E06002F05FF800BF3B
:105B40004FF4E36001F034F800F001000028F7D0D2
:105B500040F2127001F02CF845B2284601F0C2F96B
:105B6000204601F0B7F900BF0B48006810B10A48A1
:105B70000068804700BF00BF722001F019F8064698
:105B800046F01101722002F039F800BF01200349EC
:105B900008700020B3E7000094B8002090B80020FF
:105BA00000200349087003490870034908707047D2
:105BB0008CB800208DB800208EB8002010B50446A7
:105BC0000C480078C0F3400098B144B900BF0023EE
:105BD0001A4619464FF4806002F020F807E000BF33
:105BE000012300221146980202F018F800BFFEF7C8
:105BF00090FC10BD43B9002010B504460E48407813
:105C000000F00100A8B1012C0AD10C48007880B93D
:105C100000BF012300221146980201F0FFFF08E0B7
:105C200000BF00231A4619464FF4806001F0F6FFCA
:105C300000BFFEF76EFC10BD49B9002041B900203D
:105C4000F8B504460D4616460020009004F0020008
:105C500018B101210420FFF767FA04F0040018B11D
:105C600000210420FFF760FA04F0020010B10120C7
:105C70000C49087032462946204601F015FB0446BF
:105C800004F0040050B1002006490870064800796D
:105C900000F00300012801D18DF80200ADF80040AA
:105CA0000098F8BD3CB9002043B9002070B5064605
:105CB0000D4600241048C06920B129883046FEF7FF
:105CC00045FC08B1204670BD00222946304600F050
:105CD00053F804430848C0694068007A012809DD88
:105CE00006480078012805DD01222946304600F0EB
:105CF00043F804432046E6E7C405240014062400C4
:105D000000B500F003F8002000BD000000B5002041
:105D100000F012F80648C0694068007A012806DDE4
:105D200004480078012802DD012000F005F800BDDC
:105D3000C40524001406240030B5024602EBC20359
:105D40000C4C246804EBC300002303604360002470
:105D50008460C460036143614376002107E000244E
:105D600000F1200505EBC1052C606C60491C05297C
:105D7000F5DB30BD180624002DE9F74F85B08046CD
:105D8000002700200490814603900290019000902B
:105D900000BF079800EBC000A849096801EBC004E8
:105DA00000BF42E118F8070000F0F801A448C069FC
:105DB00002690798105C00F0F800814275D118F86C
:105DC00007004FF07F4101EA0060791C18F80110CC
:105DD0004FF47F0202EA01410843B91C18F8011090
:105DE000121202EA01210843F91C18F801100843B5
:105DF0000390039820F07F40A0F5000002900398E4
:105E0000C0F380600190019808B101206076607E47
:105E100000B908E1217E0198814203D0FFF776FFA7
:105E2000012060760198207644F62061206888423F
:105E300002DA2068401C2060019898B981492068E6
:105E4000096888420EDD0298002801DD029801E011
:105E50000298404200907C4900980968884201DD20
:105E600049F001096068182807DA0298774A6168E2
:105E700052F8211080FB015608E002986168C1F1D8
:105E80002F01724A52F8211080FB01566068C11739
:105E900000EB91718910A0EB810139B101290CD07F
:105EA000022911D003291FD116E0BBE0D4E902106A
:105EB00049197041C4E9021017E0D4E904104919E6
:105EC0007041C4E9041010E0D4E90210491B60EBF2
:105ED0000600C4E9021008E0D4E90410491B60EB95
:105EE0000600C4E9041000E000BF00BF60682F286E
:105EF0007AD10420049011E00498401E04F120019E
:105F000001EBC000D0E9001004F12002049B02EB79
:105F1000C302C2E900100498401E049004980028AF
:105F2000EADCD4E90201C00F40EA4100C917C4E924
:105F30000201D4E90401C00F40EA4100C917C4E9D5
:105F40000401D4E9023C1846DA17A3FB001A0CFB43
:105F500003A003FB0202D4E9043C18464FEAE37BAA
:105F6000A3FB00AE0CFB03E003FB0B0311EB0A01E8
:105F700042EB0300C4E908100021A160E160216147
:105F80006161019888BB3248D4E90831D0E900202A
:105F9000D21A884109DA2E48D4E90A23D0E9001040
:105FA000891A984101DA49F00209D4E90830D4E9A4
:105FB0000C219A1A60EB01002649D1E900319A1AA6
:105FC000814125DAD4E90A30D4E90C219A1A60EB30
:105FD00001002049D1E900319A1A814118DA20687C
:105FE000602815DD49F0040912E0FFE71A48D4E9FA
:105FF0000832D0E90010C91A904109DA1648D4E9EC
:106000000A13D0E90020511A984101DA49F0080931
:106010006068401C60603021606890FBF1F201FB19
:106020001200606000BF381D87B206980088B84231
:106030003FF7B8AE484608B0BDE8F08F1806240018
:10604000C405240090B9002098B90020E00A24007B
:1060500060B9002080B9002068B9002010B504465E
:10606000204602F07BFE10BDF8B507460D46002421
:1060700011E0E00047FA00F0C0B2009004EB4500E8
:1060800086B2182E05D2054988190122694600F00A
:1060900074F8601CC4B2022CEBDBF8BD745C012008
:1060A00070B505460C46164604B970BD3246214609
:1060B000284600F05FFB32462146284600F0EAFB06
:1060C00000BFF2E710B518220021034800F075F870
:1060D00002F06EFF10BD0000745C0120F0B50546B3
:1060E0002E68AF8800246EB167B100BF08E006EBF0
:1060F0008402518836F8240001F0DDFB601C84B274
:10610000BC42F4DBF0BD2DE9F04704460E461746CD
:106110004FF000080025A9464CB346B300BF24E069
:1061200034F8250000F4704098B904EB85025188DA
:1061300034F8250001F062FD34F8250000F038FD48
:10614000814604EB85004088484501D06FF0030884
:1061500008E037B904EB8502518834F8250001F0D6
:10616000C5FD00BF00BF681C85B2B542D8DBFEF795
:10617000D1F94046BDE8F087704770B504460D463A
:106180002B46214641EA030086070CB105B10AB946
:10619000002070BD3EB904E0186808601B1D091D91
:1061A000121F042AF8D204E0187808705B1C491CFE
:1061B000521E002AF8D12046EBE7F0B504461346FC
:1061C000224695074FF07F4000EA01604FF47F07B9
:1061D00007EA014738434FF47F4707EA012738436E
:1061E000CFB240EA07060CB90020F0BD2DB902E09D
:1061F0001660121D1B1F042BFAD202E01170521CF4
:106200005B1E002BFAD12046EFE700002DE9FF4F7F
:106210008DB004468A460AEB4A00594901EB8005D5
:10622000584800EB4A17E87A0C9068790B90687A26
:106230000A90A87A099028790890E87807900C9E2F
:106240000020069005900C200490687820B1DFF8BB
:106250003891DFF838B103E0DFF83491DFF834B17A
:10626000386948450AD97869484507D90798002808
:1062700004DD0026DDF8288001200590386978616A
:106280000598002860D14448844202D9A4F500044E
:1062900001E04FF40064414884421AD340488442EC
:1062A00007D23E48201A00EB40003C4901EB400475
:1062B0000FE03C48844205D23848201A374901EBA8
:1062C000C00406E03548201AC0EBC000334901EB9A
:1062D000400400BF344830F816C00146079831F832
:1062E000100008994843A0FB0B1062460023CDE93B
:1062F000001008460199FCF726FA22460023CDE952
:106300000201FCF720FA80460998804508D90B98CD
:10631000864202DA701CC6B20EE0DDF8248012E07C
:106320000A98804507D2002E02DD701EC6B203E037
:10633000DDF8288007E006E00498401EC0B2049013
:1063400004980028C6D100BF0F9880F800801098EC
:1063500006700F9801780898814203D0069840F0A3
:1063600001000690109801780798814203D00698A2
:1063700040F002000690069811B0BDE8F08F0000D2
:10638000E0570120405801203333F3009A99590017
:10639000CDCCEC0014AE47000008800000127A005B
:1063A000A0987B00401F7D00BC0A240010B5014668
:1063B00000200DE000EB4003074C04EB8302137850
:1063C00023B19378B1EBA30F00D110BD421CD0B222
:1063D0000828EFD30020F8E7E05701202DE9FF4F10
:1063E0008FB090461E460025AFE105EB4500DA4927
:1063F00001EB80000D900D9880780C900D9800783E
:1064000000287DD00020099007900D98407810B1A9
:10641000DFF848B301E0DFF848B30D9948780AAADD
:106420000BA901F01BFDCF4800EB4514CE4800EB53
:106430004507208B069006988000052190FBF1F01F
:106440001FFA80F90698400090FBF1F080B20890A6
:10645000207F58B10698400090FBF1F080B209907F
:10646000607F18B90020608301206077387830B9E8
:1064700006984000052190FBF1F080B20990099840
:10648000A9EB0000C82803DDA9F1C80080B209907B
:106490000898A9EB0000C82803DDA9F1C80080B264
:1064A00008900020059047E105990F98405C4FF057
:1064B0007F4101EA00610598401C0F9A105C4FF47F
:1064C0007F0202EA004008430599891C0F9A515C3B
:1064D0004FF47F4202EA012108430599C91C0F9A33
:1064E000515C084304901F21049801EAD060039096
:1064F000049820F07F4A0C990398884266D100E006
:1065000021E1069901EB810188B2984931F8151013
:10651000491C964A22F815100B998A4509D902F1AF
:10652000100131F81510491C8AB29049103121F838
:1065300015208E49103131F81510B1EB201F0DDBFD
:106540008A4991F820100122AA401143874A82F813
:10655000201000228549103121F81520834931F897
:106560001510814208DB00228049103121F81520E6
:1065700000217E4A22F81510618B0998814205D1CD
:106580000020A06020604FF080706060618B0898F0
:10659000814201D10020E060608B484517DAA06895
:1065A0005044A060E0685044E060608B401C608311
:1065B0002068504501D2504600E0206820606068A5
:1065C000504501D9504600E060686060B0E009982D
:1065D00081450FDDA1680998A9EB0000B1FBF0F03F
:1065E00048F82500E1680898A9EB0000B1FBF0F03D
:1065F000079003E048F825A0CDF81CA058F8250026
:10660000206100206083099020770A9907988842CA
:1066100003D30B990798884204D931780120A84008
:1066200001433170514890F820000121A9400840F1
:1066300098B30020029020680B99884210D92068F6
:10664000ABFB00104A4A0023CDE90010084601992F
:10665000FCF779F8029031780120A84001433170AD
:1066600058F82500584510D958F82510029881424D
:1066700002D958F8250000E0029848F82500317842
:106680000120A8400143317006E020680B99884240
:1066900002D9029848F8250000BF31780120A840AF
:1066A000014099BB314890F820000121A9400840E1
:1066B00060BBCBEBCB012069B1EBC00F05D80BEB76
:1066C000CB012069B1EBC00F21D2206800EB800024
:1066D0004000616801EB41018900884217D2387897
:1066E00030B9012038703178A8400143317013E08F
:1066F0007878401C7870787813280DDB3078012189
:10670000A940084330700020787005E002E00020C6
:10671000787001E00020787001203870134890F8FC
:1067200020000121A9408843104981F8200008E099
:106730000598001D80B20590109905988842FFF6D3
:10674000B3AE00BF00BF681CC5B2082DFFF44DAE4C
:1067500013B0BDE8F08F0000E05701209A99D900EE
:1067600014AEC7004058012040590120505C012060
:106770006666E6002DE9F0478CB081468A461646EB
:10678000202104A8FCF747F800200390002703AB62
:1067900004AA51464846FFF721FE00246FE001207D
:1067A000A0409DF80C100840002866D004EB44007F
:1067B000354901EB800504A951F8240001AB02AA78
:1067C0002146FFF723FD0746A878C0F3830807F0AA
:1067D000020090B1297A491DC8B29DF804204146B3
:1067E00002F0CCFC9DF80400E8702A7A06F1200340
:1067F00041469DF8040000F0D7FE07F0010048B3C1
:106800009DF808002871E87900F0010060B19DF85A
:1068100008204146032002F0B1FC287906F140032C
:106820000022414600F0AFFEE87900F0020060B1BE
:106830009DF808204146042002F0A0FC287906F1CA
:1068400040030122414600F09EFEFF220F214046F8
:1068500002F01CFC87B101200C4901EB44110877C0
:1068600000200A4901EB441148770120A040084963
:10687000097808430649087000BF601CC4B2082CA0
:106880008DD30CB0BDE8F087E057012040580120BF
:1068900011B900202DE9F74F8CB0064600200B906F
:1068A000E0E00B9800EB4000724901EBC004607D12
:1068B00080100990607D00F0030008900998FFF7B0
:1068C00075FD0A906C490A9801EB4010008B059009
:1068D0000A9800EB4000694901EB80004079049080
:1068E00005984000052190FBF1F087B205983844E7
:1068F0001FFA80F80A9901EB4101604A02EB81011D
:10690000487807AA06A901F0A9FA207D00287CD0C2
:10691000A8EB0700C82802DDA8F1C80087B200254F
:1069200097E0705D4FF07F4101EA0060691C715C87
:106930004FF47F0202EA01410843A91C715C121264
:1069400002EA01210843E91C715C084303901F21FE
:10695000039801EAD0600290039820F07F49617D9E
:106960000298814273D1A089B84207D10020A0606B
:10697000C4F80490C4F80090E0812082A0894045CA
:106980001DDA4A46D4E90010FDF7CBFA8246A0682A
:106990005044A0600698824502D9E089401CE081FD
:1069A000608AB0EB1A2F02D2208A401C2082206815
:1069B0006060C4F80090A089401CA08146E0A8EB6C
:1069C000070080B200904FF0FF0A94F816B0A1685B
:1069D0000098B1FBF0F00190E1890098B1EBE00F75
:1069E00006DDBBF1000F03DDABF1010000F0FF0A93
:1069F000218A0098B1EBE00F0CDA079901988842E0
:106A000008D20498834505DA00E027E00BF1010085
:106A100000F0FF0ABAF1FF0F14D00899491DC8B25F
:106A20005246099902F0AAFB84F816A0504609992B
:106A300001F0D4FA60820E9B20335046DDE9082134
:106A400000F0B2FD0020A08107E000E000BF281D9B
:106A500085B20D988542FFF664AF00BF0B98401CCD
:106A6000C0B20B900B982028FFF41BAF0FB0BDE80D
:106A7000F08F00005059012040580120E0570120BC
:106A800010B50446012008F04FFF2046FEF772F9CA
:106A9000FA2C0BD11A481B49C8607E2008700520CB
:106AA0004870082088700120487103E000201549D3
:106AB000487110BD1349087800EBD0714910A0EB64
:106AC000410149B10F490978481C00EBD071C1F36D
:106AD00047010C4AD17008E00A490978881C00EB8C
:106AE000D071C1F34701074AD170064800780549C3
:106AF000497890FBF1F0401C0249087100BFD8E7CB
:106B0000A80E2400F05C01200020014908707047A5
:106B10008FB8002010B50122114640F20C5000F051
:106B200059F80149087010BDC6B6002070B504467A
:106B30000D460548006830B100F06CFD294620463E
:106B4000014A1268904770BD0CB900202DE9F04150
:106B500014460E4607004FF000051FD0F6B112484C
:106B60000088844201D904460425601E4FF4486120
:106B7000884208D221463846FFF7D8FF21463846DA
:106B8000FDF704FC02E08C4200D9002407480268AB
:106B900012B1214638469047348001E06FF001057C
:106BA0002846BDE8F0810000D2B80020A0B800203F
:106BB00070B5044600250648006830B100F02AFD93
:106BC00020460349096888470546284670BD0000ED
:106BD00004B900202DE9F04107460C461646301B4B
:106BE000401C012101FA00F0401EA0401FFA80F86D
:106BF00000250848006848B100F00CFD38460549FA
:106C000009688847054605EA080525412846BDE884
:106C1000F081000004B900202DE9F047002500268E
:106C20000027A846A94600241BE0C4EBC4014FF48A
:106C3000897202EB8100FFF7BBFF814600200CE068
:106C4000820049FA02F202F00F0100EB84031E4AAF
:106C500012682032D154411CC8B20428F0DB601CF9
:106C6000C4B2082CE1DB4FF48F764FF49078002407
:106C700025E0C4EBC40106EB810188B2FFF798FF61
:106C8000C5B2C4EBC40108EB810188B2FFF790FFE5
:106C9000C7B20D480068403020F814500A48006818
:106CA000403030F814104FF6FF7000EA072001431F
:106CB00005480068403020F81410601CC4B2082C4D
:106CC000D7DBBDE8F0870000C8B6002001490860A6
:106CD00070470000E4B80020034B1860034B1960B4
:106CE000034B1A6070470000ACB90020B0B9002017
:106CF000B4B900202DE9F04106AC94E8F010DFF8BB
:106D00004C80C8F80000DFF84880C8F80010DFF8B1
:106D10004480C8F80020DFF84080C8F80030DFF871
:106D20003C80C8F80040DFF83880C8F80050DFF831
:106D30003480C8F80060DFF83080C8F80070DFF8F1
:106D40002C80C8F800C0BDE8F081000094B8002095
:106D500098B800209CB80020A0B80020A4B800205B
:106D6000B4B80020ACB80020B0B80020A8B800200B
:106D700030B503466FF00100D9B1D2B1042B18DA57
:106D8000282444EA43040B4D2C700B4C21600B4C1F
:106D900022600B4C0B4D2C600B4C0C4D2C600C4CA2
:106DA0000C4D2C600C4C0D4D2C600D4C0D4D2C6081
:106DB000002030BDE0B80020F4B80020F8B8002072
:106DC000715A2100FCB80020A95A210000B9002006
:106DD000C959210004B90020195A210008B900201E
:106DE000915921000CB9002010B50446002C2ED07A
:106DF00017494868002102F0F1F915498868002117
:106E000002F0ECF912498869002102F0E7F9104913
:106E1000C869002102F0E2F90D49486A002102F038
:106E2000DDF90B49C86B002102F0D8F90849086860
:106E3000002102F0D3F9FFF745F900F09BF800209C
:106E4000FDF7F0FFFDF7AEF800200249087010BD15
:106E5000C40524008CB8002010B5FEF781FA002389
:106E60001A4619464FF4816000F0D8FE4FF4406195
:106E70004FF4A16000F0C2FE0123002211464FF43E
:106E8000816000F0CBFEFEF721FA10BD10B504467C
:106E90000348006818B1204601490968884710BDB9
:106EA000FCB800200020034908700349087003491A
:106EB000087070478CB800208DB800208EB8002074
:106EC00001218140024A12781143014A1170704732
:106ED000DEB80020704700000149086070470000DC
:106EE00080B800200149087070470000D7B8002022
:106EF000F8B504460D461746002000900DF101013B
:106F0000684602F0CFFCC4EB04201DF8051090FB8E
:106F1000F1F086B23046F8BDB0F5486F0ADC0146A4
:106F2000C21700EB927292104FF6FF7303EA8202CF
:106F3000014B1A8070470000D2B8002039B90122F5
:106F40008240074B1B789343054A137006E00122E9
:106F50008240034B1B781A43014B1A7070470000A4
:106F6000A6BA0020024909680143014A116070472E
:106F700088B8002010B500200949087006220021B9
:106F80000848FFF71AF900200749087007490870F8
:106F900001200749087000200649087010BD000054
:106FA0003EB9002043B900203FB9002040B900207D
:106FB00042B9002041B900202DE9F84F83468A46A6
:106FC0004FF000097BE04FEAC9004BFA00F0C0B275
:106FD000009009EB4A00C4B2062C6CD23A49081959
:106FE00001226946FFF7C9F8032C61D136480078C1
:106FF000364901EBD01000784FF47A7110FB01F0A4
:10700000C317054630480078C0F302103049085CC9
:107010004FF40001A0FB017001462A463846FBF7F9
:1070200092FB29494978A0FB01012A4908602648BA
:107030000078264901EBD01000784FF47A7110FBEC
:1070400001F0C317054620480078C0F3021020491C
:10705000085C4FF40001A0FB017001462A46384647
:10706000FBF771FB18498978A0FB01011A490860F8
:1070700015480078154901EBD01000784FF47A716B
:1070800010FB01F0C31705460F480078C0F302104B
:107090000F49085C4FF40001A0FB01712A463846F5
:1070A000FBF751FB0849C978A0FB01010B490860B7
:1070B00001200B49087009F1010000F0FF09B9F146
:1070C000020F80DBBDE8F88F43B90020DD0A240001
:1070D000D80A240020B900201CB9002024B90020BF
:1070E0003EB9002010B5044621464FF4847000F0EC
:1070F00085FD10BD2DE9F04104460D460027002610
:10710000E0B2A04224D115B1012D1AD10CE04FF408
:107110008470FFF74DFD064646EA0400C1B24FF405
:10712000847000F06BFD12E04FF48470FFF740FDB7
:10713000064626EA0400C1B24FF4847000F05EFDFA
:1071400005E0E1B24FF4847000F058FD00BF01E0AB
:107150006FF001073846BDE8F0812DE9F04705469C
:107160000C4617460026B0466FF00109082D17DAC5
:10717000022C15DAC5EBC5004FF48F7101EB8000CE
:1071800000EB44084046FFF713FD064626F0FF06D5
:107190003E433146404600F031FD4FF0000900E02B
:1071A00000BF4846BDE8F0872DE9F04704460D468C
:1071B00016460027B8466FF00109082C1DDA042D89
:1071C0001BDA0D2E19DAC4EBC4004FF4897101EB00
:1071D00080084046FFF7ECFC0746A9000F208840D6
:1071E0008743A90006FA01F0384387B23946404682
:1071F00000F004FD4FF0000902E0082C00DA00BFA7
:107200004846BDE8F087000070B504460D4660684A
:1072100001280DD10F480078012809D00220FDF780
:10722000B1F90820FFF79EFE01200A49087010E01E
:10723000207900F0020060B106480078022808D0EA
:107240000820FDF79FF90220FFF78CFE022001497C
:10725000087070BDACBA002070B504460D46606879
:1072600001280DD10F480078012809D00220FDF730
:1072700089F90820FFF776FE01200A49087010E01E
:10728000207900F0020060B106480078022808D09A
:107290000820FDF777F90220FFF764FE022001497C
:1072A000087070BDACBA00202DE9F04104460E46CE
:1072B000154634480078C0F3810000285FD032487A
:1072C000007800285BD004F0020080B12F480088CD
:1072D000B0F5487F09D02D480088B0F5A07F04D0D4
:1072E0002A480088B0F5807F01D1FEF709FD2848C3
:1072F000007810B12046BDE8F08122480078C0F344
:10730000810001282BD004F0040038B11D4800781A
:10731000C0F38100022801D124F004042888F0B1D0
:107320001C48007801281AD1002718480088B0F5B9
:10733000487F09D015480088B0F5A07F04D01348D5
:107340000088B0F5807F04D129463046FEF7AEFCB8
:1073500007461FB144F0040400F020F800BF0948BC
:107360000079C0F3C00050B10B480078012806D165
:1073700004480079C0F3800008B124F4006420467A
:10738000B9E7000043B900203EB900201AB9002037
:1073900042B900203CB9002040B9002010B5174880
:1073A0000079C0F3800038BB082211464FF4F57015
:1073B000FFF710FC00B31249C9694968487A0121F6
:1073C000FFF798FE00BF00231A4619464FF480606D
:1073D00000F024FC00BF00BF0123002211469802E8
:1073E00000F01CFC00BF0649C9694968487A0021C1
:1073F000FFF780FEFDF78DF810BD000043B90020B7
:10740000C405240010B54FF0FF3400BF00BFC220F8
:10741000FFF73CFD00BF002400BFFEF787FA08B964
:1074200000F01AF80120094908700948007801287D
:107430000AD100200649087000BF0648006810B154
:1074400004480068804700BF204610BDD4B8002023
:107450008FB80020B4B800207047000000B507487E
:10746000007850B90548FCF747FE012003494870F1
:1074700000210248C1740121C17200BD37610120A1
:107480000279014B1A7070472EB6002070B54FF08C
:10749000FF341F480078022838D0FF201D490870AB
:1074A0007220FFF785FB00F0110011282AD118483F
:1074B0000078012826D100250A20FFF779FB16491C
:1074C00008800020FFF774FB054645F0010100200D
:1074D00000F094FB0120FEF771FBFFF79DFB0F48C6
:1074E0000068FEF7BBFD02200949087000BF0C4888
:1074F000006810B10A480068804700BF00F012F829
:10750000002403E0002002490870841F204670BD5B
:1075100090B8002078B8002092B80020C8B60020AB
:1075200098B800207047000070B56FF0050413484C
:107530000078012803D01148007802281BD10025CB
:1075400001200E4908700020FFF732FB054625F0A8
:107550000101002000F052FB0020FEF72FFB00BFCE
:107560000748006810B106480068804700BF00F077
:1075700009F8002400BF204670BD000090B800202C
:107580009CB80020704710B53AB933F8114004F4A4
:107590007F44044323F8114005E033F8114060F3C1
:1075A0001F2423F8114010BD10B502EB81041855BB
:1075B00010BD10B50246002000BF1EE012F81030CA
:1075C000012404EB4004145D634002F810300123F1
:1075D00003EB4003D35C12F810406340012404EB3A
:1075E0004004135512F81030012404EB4004145DDC
:1075F000634002F81030431C98B201EBD174B0EB39
:10760000640FDBDB10BD7047704770470120704787
:107610007047704710B50A48017801208840094931
:10762000097800EA010454B1054801780120884036
:1076300004490978814303480170FDF791FE10BDAC
:10764000DCB80020DEB8002010B520220748016811
:1076500020310068FEF791FD102204480168403196
:1076600000685030FEF789FD10BD0000C8B600204C
:107670002DE9F04780460C4691461F4600251148EB
:107680000078401FC6B2BE4200DD3E46AA202070F0
:107690001120607084F80280E670281DC5B236B1F2
:1076A000601932464946FEF768FDA819C5B2321D79
:1076B00000212046FCF782FE6055681CC5B22846B2
:1076C000BDE8F087A9B900200146142903DA142087
:1076D000064A107007E0F32903DDF320034A107017
:1076E00001E002480170014800787047A9B9002004
:1076F0002DE9F04106460D464FF0FF370024A04625
:10770000012E01DDA71E5FE04FF48160FFF750FA04
:1077100004466EBB04F01000102801D0002D53D099
:1077200024F01004EDB140F22640FFF741FA804604
:10773000002140F2264000F061FA21464FF48160BA
:1077400000F05CFA44F420614FF4816000F056FAD6
:107750009620FDF749F8414640F2264000F04EFAE7
:1077600004E021464FF4816000F048FA00272BE046
:1077700004F01000102800D135B344F01004EDB12E
:107780004FF48560FFF714FA804600214FF48560BE
:1077900000F034FA21464FF4816000F02FFA44F4EF
:1077A000A0614FF4816000F029FA9620FDF71CF8E3
:1077B00041464FF4856000F021FA04E021464FF481
:1077C000816000F01BFA00273846BDE8F08170B5F3
:1077D00004460D46B4F5A27F03D0B4F5A37F02D1D1
:1077E00000E00BE00AE0A4F5405000EBD071C1F3DB
:1077F0004F06F1B22846FCF7DFFB00BF00BF70BDAB
:10780000704770B504460D46A4F58B50172823D257
:10781000DFE800F00C220D220E220F22102211228E
:1078200012221322142215221622170000BF00BFB5
:1078300000BF00BF00BF00BF00BF00BF00BF00BF50
:1078400000BFA4F58B5000EBD071C1F34F06314659
:107850002846FEF709FC00E000BF00BF70BD2DE91F
:10786000F04107460C4690461D4607EB47004FF493
:10787000435101EB0020A8EB000086B2B6F5007F73
:1078800003D0A6F2022058B908E02046FCF734FCE9
:107890006570607808B10120207009E0A57007E0EC
:1078A000A6F50170E11C0D542A0A401C0A5400BFC1
:1078B00000BFBDE8F08170B504460E46B4F5405FE8
:1078C00000DA70BDA4F540504FF4407190FBF1F523
:1078D00005EB4500000200F54350A04234D8681C77
:1078E00000EB4000000200F54050A0422CD90D2DC5
:1078F00028D2DFE805F027070C27111213182727D5
:107900001D2722003146204600F04AF91BE031468F
:10791000204600F065F916E000BF14E0314620462D
:1079200000F0ACF90FE03146204600F0B9F80AE06B
:107930003146204600F05EF805E031462046FFF76C
:107940005FFF00E000BF00BF00BFBAE72DE9F043D2
:1079500004460E46DDE9077506EB46014FF4435C2D
:107960000CEB0121791AC1F34F000FFA80FC0CEBEC
:10797000DC78C4EB68084FEAD878B8F1000F05D17D
:1079800000EBD078C4EB6808984501DBBDE8F083D4
:10799000014600EBD17C4FEA6C0CA0EB4C0CBCF127
:1079A000000F11D000EBD178C4EB680832F82890B2
:1079B0004FEA054869F30F08844600EBDC79C4EB15
:1079C000690942F8298013E0014600EBD178C4EB45
:1079D000680852F828804FEA28484FEA084865F3BB
:1079E0000F08844600EBDC79C4EB690942F8298072
:1079F00000BFCBE7704700002DE9F04104460D467B
:107A00000026C4F30B04222094FBF0F100FB11408C
:107A100050B9222094FBF0F0154951F82070E9B2DA
:107A2000384601F0DBFB20E0222094FBF0F100FB64
:107A30001140801E86B2202E16DA222094FBF0F030
:107A40000B4951F820702A0A701CC1B2384601F067
:107A5000BDFB222094FBF0F0054951F82070EAB2FA
:107A6000F1B2384601F0B2FB00BF00BFBDE8F081C3
:107A7000C405240070B506460C46154616B1072EFF
:107A80000AD104E029462046FFF7A1FE05E0294679
:107A9000204600F013F800E000BF00BF70BD0000FA
:107AA0003CB504460D460523034A07210020CDE9D5
:107AB0000045FFF74BFF3CBD8CBA002070B5044673
:107AC0000D46B4F58A4F08D0A4F58A40023828B193
:107AD000022804D0042811D10CE000BF00BFA4F597
